:100000000C943C010C9464010C9464010C94640104
:100010000C9464010C9464010C9464010C946401CC
:100020000C9464010C9464010C9464010C946401BC
:100030000C9464010C9464010C9464010C946401AC
:100040000C949D0B0C9464010C9461070C94E70BC9
:100050000C9464010C9464010C9464010C9464018C
:100060000C9464010C94640152096AD53036A538A9
:10007000BF40A39E81F3D7FB7CE339829B2FFF8790
:10008000348E4344C4DEE9CB547B9432A6C2233D74
:10009000EE4C950B42FAC34E082EA16628D924B225
:1000A000765BA2496D8BD12572F8F6648668981646
:1000B000D4A45CCC5D65B6926C704850FDEDB9DAA5
:1000C0005E154657A78D9D8490D8AB008CBCD30A93
:1000D000F7E45805B8B34506D02C1E8FCA3F0F026F
:1000E000C1AFBD0301138A6B3A9111414F67DCEA3E
:1000F00097F2CFCEF0B4E67396AC7422E7AD3585B7
:10010000E2F937E81C75DF6E47F11A711D29C589C0
:100110006FB7620EAA18BE1BFC563E4BC6D27920A2
:100120009ADBC0FE78CD5AF41FDDA8338807C731AB
:10013000B11210592780EC5F60517FA919B54A0DA3
:100140002DE57A9F93C99CEFA0E03B4DAE2AF5B018
:10015000C8EBBB3C83539961172B047EBA77D62634
:10016000E169146355210C7D000102040810204050
:10017000801B36637C777BF26B6FC53001672BFE8B
:10018000D7AB76CA82C97DFA5947F0ADD4A2AF9CED
:10019000A472C0B7FD9326363FF7CC34A5E5F171C4
:1001A000D8311504C723C31896059A071280E2EBCD
:1001B00027B27509832C1A1B6E5AA0523BD6B3295D
:1001C000E32F8453D100ED20FCB15B6ACBBE394AEA
:1001D0004C58CFD0EFAAFB434D338545F9027F50F1
:1001E0003C9FA851A3408F929D38F5BCB6DA2110F0
:1001F000FFF3D2CD0C13EC5F974417C4A77E3D6488
:100200005D197360814FDC222A908846EEB814DEB7
:100210005E0BDBE0323A0A4906245CC2D3AC629141
:1002200095E479E7C8376D8DD54EA96C56F4EA652B
:100230007AAE08BA78252E1CA6B4C6E8DD741F4B2A
:10024000BD8B8A703EB5664803F60E613557B98698
:10025000C11D9EE1F8981169D98E949B1E87E9CE45
:100260005528DF8CA1890DBFE6426841992D0FB05A
:1002700054BB1600190C0D0C11241FBECFEFD8E093
:10028000DEBFCDBF14E0A0E0B1E0E0E9F1E202C0E2
:1002900005900D92AC35B107D9F728E0ACE5B4E094
:1002A00001C01D92A437B207E1F711E0CBE3D1E022
:1002B00004C02197FE010E94530DCA33D107C9F72C
:1002C0000E94860C0C94BB100C940000089580E0F2
:1002D00090E00895FC01538D448D252F30E0842F4C
:1002E00090E0821B930B541710F0CF96089501975E
:1002F0000895FC01918D828D981761F0828DDF0148
:10030000A80FB11D5D968C91928D9F5F9F73928F08
:1003100090E008958FEF9FEF0895FC01918D828DFD
:10032000981731F0828DE80FF11D858D90E00895CA
:100330008FEF9FEF0895FC01918D228D892F90E022
:10034000805C9F4F821B91098F739927089580E0ED
:1003500090E0892B29F00E941C0981110C94000067
:100360000895680F791F8617970721F0FC01108206
:100370000196F9CF0895CF93DF93EC018A819B8199
:10038000DC01ED91FC910684F785E02D099560E193
:1003900070E0CE0104960E94B10160E170E0CE01F0
:1003A00044960E94B10180E18CA3DF91CF91089522
:1003B000AF92BF92CF92DF92EF92FF920F931F9373
:1003C000CF93DF936C018B01EA0179015C0184E139
:1003D000A80EB11CA0E1EA16F10420F1F601828119
:1003E0009381DC01ED91FC910484F585E02DAE0153
:1003F000B50109959E01B801F6013496005F1F4FC3
:10040000D9019D919D01408980818427DB018D93D5
:10041000BD019193A017B10799F76096B0E1EB1A6F
:10042000F108D8CFDF91CF911F910F91FF90EF90FE
:10043000DF90CF90BF90AF9008958F929F92AF9230
:10044000BF92CF92DF92EF92FF920F931F93CF93C1
:10045000DF936C017B015A0189014C0184E1880E14
:10046000911C0031110530F1D501E6012496FE0101
:100470008D91908189278193E815F905C9F7A0E14D
:10048000AA0EB11CF60182819381DC01ED91FC91F1
:100490000284F385E02DAE01BE010995F701899133
:1004A0008193C815D905D9F7B0E1EB0EF11C0051C5
:1004B0001109D7CFDF91CF911F910F91FF90EF904E
:1004C000DF90CF90BF90AF909F908F900895EF9264
:1004D000FF920F931F93CF93DF93EC018B017A016F
:1004E0008A819B81DC01ED91FC910480F581E02DF6
:1004F0000995409789F48A819B81DC01ED91FC91FB
:100500000084F185E02DA701B801DF91CF911F9103
:100510000F91FF90EF90099480E0DF91CF911F91B0
:100520000F91FF90EF90089580E190E00895DC0135
:1005300012968D919C911397DC01ED91FC910680B0
:10054000F781E02D0994CF93DF93DC01EB01E98182
:10055000F0E0ED58FE4F8491E42FF0E0E859FE4FB3
:10056000E491E827EC93EA81F0E0ED58FE4FE49146
:100570001196EC931197EB81F0E0ED58FE4FE4916A
:100580001296EC931297E881F0E0ED58FE4FE4915B
:100590001396EC93DF91CF910895FC01628170E096
:1005A0006F5F7F4F84E0660F771F8A95E1F7838145
:1005B00094810C94B1012F923F924F925F926F926F
:1005C0007F928F929F92AF92BF92CF92DF92EF92E3
:1005D000FF920F931F93CF93DF9300D000D0CDB73E
:1005E000DEB78C01FB015081918182814381252FEF
:1005F00030E03C832B83220F331F7BE1272E239E89
:10060000302C11243226A92FB0E09D01220F331F78
:10061000239EB02C1124B226482E512C9201220F79
:10062000331F239E902C11249226642F70E09B018F
:10063000220F331F239E202C11242226EB81FC81C4
:10064000EE0FFF1FEE0FFF1FFA83E9836D01CC0C45
:10065000DD1CCC0CDD1CED2CFF2497012A5F3E4FE6
:10066000F90180808C246201CC0CDD1CCC0CDD1CDB
:10067000ED2CFF2497012A5F3E4FF901A080AC24A6
:100680006B01CC0CDD1CCC0CDD1CED2CFF24970188
:100690002A5F3E4FF901D080DC24EB80FC80F3E040
:1006A000EE0CFF1CFA95E1F72F2D33272A5F3E4F02
:1006B000F901F081FE25FB833D0133E0660C771CD8
:1006C0003A95E1F7A72DBB27AA5FBE4FAC91A625AF
:1006D000F3E0440C551CFA95E1F7E52DFF27EA5F9E
:1006E000FE4FE0814E2623E0660F771F2A95E1F743
:1006F000E72FFF27EA5FFE4FE0816E2729813A81CD
:10070000E32FFF27EA5FFE4F3081298123273B81BA
:100710002327392F382734273A253A2734253627F7
:1007200033253B253227F8013083352F38273427EE
:1007300038253D25FB813F273A2734253627B32628
:10074000B924F801B18295274927A426AA26A42412
:10075000A6269A2492242925228398279825C92EF3
:10076000CD24FB81FC25AF274A2664256325262F4F
:100770002225F80123830F900F900F900F90DF91A7
:10078000CF911F910F91FF90EF90DF90CF90BF908E
:10079000AF909F908F907F906F905F904F903F9021
:1007A0002F9008951F93CF93DF93FC01CB01DB01C2
:1007B0001C9111967C9111971296BC91EC01AB8122
:1007C000812F90E0880F991FCBE1C99F602D1124E4
:1007D0006827472F50E0440F551FC59F802D1124D7
:1007E00048272B2F30E0220F331FC39F802D112469
:1007F00028278A2F90E0880F991FC99FC02D1124A8
:100800008C27972F9B279A27962794279083912FA1
:100810009B279A274927422741837127A7272A2701
:10082000282722837B27762787278383DF91CF9111
:100830001F910895CF93DF93DC01EB01E881F0E095
:10084000E859FF4FE491EC93ED85F0E0E859FF4F54
:10085000E4911196EC931197EA85F0E0E859FF4F87
:10086000E4911296EC931297EF81F0E0E859FF4F74
:10087000E4911396EC931397EC81F0E0E859FF4F65
:10088000E4911496EC931497E981F0E0E859FF4F56
:10089000E4911596EC931597EE85F0E0E859FF4F3B
:1008A000E4911696EC931697EB85F0E0E859FF4F2C
:1008B000E4911796EC931797E885F0E0E859FF4F1D
:1008C000E4911896EC931897ED81F0E0E859FF4F0A
:1008D000E4911996EC931997EA81F0E0E859FF4FFB
:1008E000E4911A96EC931A97EF85F0E0E859FF4FE0
:1008F000E4911B96EC931B97EC85F0E0E859FF4FD1
:10090000E4911C96EC931C97E985F0E0E859FF4FC1
:10091000E4911D96EC931D97EE81F0E0E859FF4FAE
:10092000E4911E96EC931E97EB81F0E0E859FF4F9F
:10093000E4911F96EC93DF91CF910895AF92BF920F
:10094000CF92DF92EF92FF920F931F93CF93DF939B
:10095000CDB7DEB7A0970FB6F894DEBF0FBECDBF00
:100960006C017B01DC0112968C91129713960D910C
:100970001C911497B0E18B9F000D111D1124FA01F9
:100980009801BE016F5F7F4F405F5F4F5B019191A8
:10099000D9018D919D018927DB018D93BD01E4175C
:1009A000F507A9F7B501CE0141960E941A04F60198
:1009B000D280D8015097F1E0FD1580F58D01FD0141
:1009C000DE0151969801205F3F4F81919C918927CC
:1009D0008D932E173F07C9F7BE016F5E7F4FC5018C
:1009E0000E94DB02BE016B5E7F4FCE0105960E9426
:1009F000DB02BE01675E7F4FCE0109960E94DB02DB
:100A0000BE01635E7F4FCE010D960E94DB02B501F1
:100A1000CE0141960E941A04DA94CBCFAE014F5E0C
:100A20005F4FC701FA013191AF012D912327FC01DE
:100A30002193CF010A171B07A9F7A0960FB6F894C8
:100A4000DEBF0FBECDBFDF91CF911F910F91FF9001
:100A5000EF90DF90CF90BF90AF900895CF93DF934A
:100A6000DC01EB01E881F0E0ED58FE4FE491EC93FE
:100A7000ED81F0E0ED58FE4FE4911196EC93119763
:100A8000EA85F0E0ED58FE4FE4911296EC93129750
:100A9000EF85F0E0ED58FE4FE4911396EC93139739
:100AA000EC81F0E0ED58FE4FE4911496EC9314972E
:100AB000E985F0E0ED58FE4FE4911596EC9315971B
:100AC000EE85F0E0ED58FE4FE4911696EC93169704
:100AD000EB81F0E0ED58FE4FE4911796EC931797F9
:100AE000E885F0E0ED58FE4FE4911896EC931897E6
:100AF000ED85F0E0ED58FE4FE4911996EC931997CF
:100B0000EA81F0E0ED58FE4FE4911A96EC931A97C3
:100B1000EF81F0E0ED58FE4FE4911B96EC931B97AC
:100B2000EC85F0E0ED58FE4FE4911C96EC931C9799
:100B3000E981F0E0ED58FE4FE4911D96EC931D978E
:100B4000EE81F0E0ED58FE4FE4911E96EC931E9777
:100B5000EB85F0E0ED58FE4FE4911F96EC93DF91AA
:100B6000CF910895BF92CF92DF92EF92FF920F93B1
:100B70001F93CF93DF93CDB7DEB7A0970FB6F8944E
:100B8000DEBF0FBECDBF7C016B01DC0113960D9162
:100B90001C911497FA01A801BF01605F7F4F9E016D
:100BA0002F5F3F4F8191DA019D91AD019827D901C7
:100BB0009D939D01E617F707A9F7005F1F4FF70107
:100BC000B280CE0141967C0191E0BE016F5F7F4F04
:100BD0009B1558F5C7010E942E05B701CE0101965D
:100BE0000E94D203BE016B5E7F4FCE0105960E942C
:100BF000D203BE01675E7F4FCE0109960E94D203E9
:100C0000BE01635E7F4FCE010D960E94D203D801D4
:100C1000FE0131968D91908189278193EE16FF0612
:100C2000C9F7005F1F4FBA94CFCFC7010E942E05AE
:100C3000F701C601AE014F5D5F4F3191D8012D9193
:100C40008D012327DC012D93CD014E175F07A9F7F6
:100C5000A0960FB6F894DEBF0FBECDBFDF91CF9147
:100C60001F910F91FF90EF90DF90CF90BF9008956C
:100C700080E290E0089588E190E0089540315105C8
:100C800069F4DC01149620E1FB0101900D922A9594
:100C9000E1F720E1FC0124A381E0089580E00895BC
:100CA000EF92FF920F931F93CF93DF934032510542
:100CB00009F065C0FB01EC01259680E2DE010190A0
:100CC0000D928A95E1F714E301E068E06830D9F409
:100CD000402FBE01645E7F4FCE0180960E94A3022A
:100CE00098A18881892788A399A18981892789A3C7
:100CF0009AA18A8189278AA39BA18B8189278BA3AB
:100D00000F5F60E035C0F880B981AA817B814C8D8E
:100D10002D8D8E8DEF8CE42F6430F9F4F0E0ED58DA
:100D2000FE4F5491E22FF0E0ED58FE4F3491E82F42
:100D3000F0E0ED58FE4F9491EE2DF0E0ED58FE4FAF
:100D40008491EF2DE527E8A3EB2FE327E9A3EA2F12
:100D5000E927EAA378277BA30BC0EF25E8A3E22FBE
:100D6000EB27E9A3E82FEA27EAA3EE2DE727EBA379
:100D700024966F5F115009F0A9CF81E001C080E097
:100D8000DF91CF911F910F91FF90EF9008950F93F6
:100D90001F93CF93DF934831510509F03FC0FB010A
:100DA000EC01259688E1DE0101900D928A95E1F72C
:100DB0001EE201E086E08630D9F4402FBE016C5E71
:100DC0007F4FCE0148960E94A302988D8881892783
:100DD000888F998D89818927898F9A8D8A81892722
:100DE0008A8F9B8D8B8189278B8F0F5F80E010C04E
:100DF0002C8998819227988F2D8999819227998F94
:100E00002E899A8192279A8F2F899B8192279B8F77
:100E100024968F5F115079F681E001C080E0DF9168
:100E2000CF911F910F9108950F931F93CF93DF934D
:100E30004031510509F03FC0FB01EC01259680E1EE
:100E4000DE0101900D928A95E1F718E201E084E05D
:100E50008430D9F4402FBE01645F7F4FCE014096AD
:100E60000E94A302988988818927888B9989898122
:100E70008927898B9A898A8189278A8B9B898B818B
:100E800089278B8B0F5F80E010C02C85988192277B
:100E9000988B2D8599819227998B2E859A819227FF
:100EA0009A8B2F859B8192279B8B24968F5F115065
:100EB00079F681E001C080E0DF91CF911F910F9121
:100EC00008951F920F920FB60F9211242F938F93B4
:100ED0009F93EF93FF93E0916C04F0916D048081F8
:100EE000E0917204F091730482FD12C090818091B0
:100EF00075048F5F8F7320917604821751F0E09113
:100F00007504F0E0E45AFB4F958F8093750401C09F
:100F10008081FF91EF919F918F912F910F900FBE44
:100F20000F901F901895FC01848DDF01A80FB11D53
:100F3000A35ABF4F2C91848D90E001968F7399270F
:100F4000848FA689B7892C93A089B1898C918370ED
:100F500080648C93938D848D981306C00288F389E6
:100F6000E02D80818F7D80830895EF92FF920F9313
:100F70001F93CF93DF93EC0181E0888F9B8D8C8D45
:100F8000981305C0E889F989808185FD26C0F62E71
:100F90000B8D10E00F5F1F4F0F731127E02E8C8D0C
:100FA000E8120CC00FB607FCFACFE889F9898081F6
:100FB00085FFF5CFCE010E949307F1CF8B8DFE0107
:100FC000E80FF11DE35AFF4FF0829FB7F8940B8FA3
:100FD000EA89FB89808180620AC09FB7F894EE8914
:100FE000FF896083E889F9898081837080648083C8
:100FF0009FBF81E090E0DF91CF911F910F91FF9013
:10100000EF900895CF93DF93EC01888D8823C9F08A
:10101000EA89FB89808185FD05C0A889B9898C9101
:1010200086FD0FC00FB607FCF5CF808185FFF2CF9C
:10103000A889B9898C9185FFEDCFCE010E949307D5
:10104000E7CFDF91CF910895CF93DF93EC0186E84E
:1010500093E09983888360E170E0CE0104960E945A
:10106000B10160E170E0CE014496DF91CF910C9424
:10107000B101CF93DF93EC010E942408CE01DF91F0
:10108000CF910C942D1020EE32E0FC0131832083AF
:1010900060EF70E005960C94B101CF93DF93EC0103
:1010A0000E944308CE01DF91CF910C942D102AE0CD
:1010B00033E0FC013183208360ED70E005960C94F1
:1010C000B101CF93DF93EC010E945708CE01DF916D
:1010D000CF910C942D102CE533E0FC01318320835B
:1010E00060EB70E005960C94B101CF93DF93EC01B7
:1010F0000E946B08CE01DF91CF910C942D10CF93FD
:10110000DF93EC018CE993E099838883CE01859687
:101110000E946B08CE01DF91CF910C942408CF93ED
:10112000DF93EC010E947F08CE01DF91CF910C94F8
:101130002D10CF93DF93EC018EE193E099838883A8
:10114000CE0185960E945708CE01DF91CF910C9475
:101150002408CF93DF93EC010E949908CE01DF9120
:10116000CF910C942D10CF93DF93EC0184EF92E09C
:1011700099838883CE0185960E944308CE01DF9132
:10118000CF910C942408CF93DF93EC010E94B30815
:10119000CE01DF91CF910C942D103FB7F894809140
:1011A000EC079091ED07A091EE07B091EF0726B5FF
:1011B000A89B05C02F3F19F00196A11DB11D3FBF8F
:1011C000BA2FA92F982F8827820F911DA11DB11D1D
:1011D000BC01CD0142E0660F771F881F991F4A9519
:1011E000D1F70895CF92DF92EF92FF920F931F9362
:1011F000CF93DF936C017A018B01C0E0D0E0CE1574
:10120000DF0581F0D8016D918D01D601ED91FC9142
:101210000190F081E02DC6010995892B11F02196EE
:10122000EECF7E01C701DF91CF911F910F91FF900B
:10123000EF90DF90CF9008958CE594E00E949B01A1
:1012400021E0892B09F420E0822F0895009769F0AE
:10125000FC0101900020E9F73197AF01481B590BC1
:10126000BC018CE594E00C94F20880E090E00895D5
:101270008EEA93E00C942609CF93DF930E9426090F
:10128000EC010E9438098C0F9D1FDF91CF910895CA
:101290002F923F924F925F926F927F928F929F9286
:1012A000AF92BF92CF92DF92EF92FF920F931F9374
:1012B000CF93DF93CDB7DEB7A4970FB6F894DEBF18
:1012C0000FBECDBF4B015C01F42E9B01AC010E940F
:1012D000900F882319F081EB93E027C0240135019A
:1012E000E89477F82FEF3FEF4FE75FE7C301B201D4
:1012F0000E94900F81110DC02FEF3FEF4FE75FE786
:10130000C301B2010E94C60D18161CF485EB93E0D0
:101310000CC02FEF3FEF4FE75FE4C501B4010E941F
:101320001E0F18162CF489EB93E00E942609B8C012
:101330002FEF3FEF4FE75FECC501B4010E94C60DF0
:1013400087FDF1CF20E030E0A901C501B4010E9482
:10135000C60D87FF0BC06DE28CE594E00E94B507D7
:101360003C01B7FAB094B7F8B09402C0612C712C6C
:1013700010E060E070E080E09FE3F11641F020E0D3
:1013800030E040E251E40E94CB0D1F5FF6CFA50193
:1013900094010E945A0D4B015C010E943D0E6AA30C
:1013A000C72ED82EE92E19A2262F372F482F592FB6
:1013B0008E010F5D1F4F0BA31CA39AE0292E312C29
:1013C000412C512CCA01B901A20191010E94310D99
:1013D000605DF80162938F012115310541055105CA
:1013E00089F7CF010E9426098301080F191FFF20EA
:1013F00009F455C06AA17C2D8D2D9E2D0E946C0E86
:101400009B01AC01C501B4010E94590D4B015C0167
:101410006EE28CE594E00E94B507080F191F8AE080
:10142000282E312C412C512C20E030E040E251E4B8
:10143000C501B4010E94230F4B015C010E943D0EC7
:101440009B0140E050E019A2CBA0DCA0762E3AA38D
:10145000642EE52ECA01B901A20191010E94310D4D
:10146000605DF60162936F0121153105410551055B
:1014700089F7CF010E942609080F191F672D7AA14D
:10148000862D9E2D0E946C0E9B01AC01C501B401FE
:101490000E94590D4B015C01FA94F110C5CFC801AF
:1014A000A4960FB6F894DEBF0FBECDBFDF91CF91EB
:1014B0001F910F91FF90EF90DF90CF90BF90AF9072
:1014C0009F908F907F906F905F904F903F902F9064
:1014D00008950C9426096F927F928F929F92AF92FB
:1014E000BF92CF92DF92EF92FF920F931F93CF9311
:1014F000DF93EC018B01FB01819191916F010E94BF
:101500003C098DEB93E00E94690A0E94CD084B01D3
:101510005C0180E1E82E87E2F82E02591F4FE88136
:10152000F981608471840480F581E02DCE010995F4
:10153000AC01B601CE01F3010995E881F98162841D
:1015400073840680F781E02DCE010995AC01B801C6
:10155000CE01F3010995F1E0EF1AF10801F70E94BD
:10156000CD08681979098A099B090E946C0E6B01E4
:101570007C0120E030E44CE156E40E94CB0D42E0D7
:101580000E9448098AEC93E00E94690AA70196012B
:1015900069EF72E085E190E50E94CB0D42E00E9488
:1015A000480985E094E00E943C098DED93E00E949B
:1015B000690A84EC93E00E94690A0E94CD086B01DD
:1015C0007C0104EF11E0E881F9810484F585E02DC8
:1015D00020E830E040EF57E0BA01CE010995015014
:1015E000110989F70E94CD086C197D098E099F09A0
:1015F0000E946C0E6B017C0120E030E04AE757E46A
:101600000E94CB0D42E00E94480981EF93E00E94C6
:10161000690AA701960168E27BE68EE691E50E94E1
:10162000CB0D42E00E9448098FEF93E0DF91CF910C
:101630001F910F91FF90EF90DF90CF90BF90AF90F0
:101640009F908F907F906F900C943C09CF92DF9287
:10165000EF92FF920F931F93CF93DF93EC018B01D7
:1016600081E194E00E94690A84EC93E00E94690A97
:10167000E881F981E084F1840480F581E02DCE01D8
:101680000995B8016E5F7F4FAC01CE01F701099556
:10169000E881F981E284F3840680F781E02DCE01B0
:1016A0000995B80162597F4FAC01CE01F701099548
:1016B0000E94CD086B017C0104EF11E0E881F98103
:1016C0000684F785E02D20E830E040EF57E0BA01CE
:1016D000CE0109950150110989F70E94CD086C19B6
:1016E0007D098E099F090E946C0E6B017C0120E030
:1016F00030E04AE757E40E94CB0D42E00E944809DF
:1017000081EF93E00E94690AA701960168E27BE6F7
:101710008EE691E50E94CB0D42E00E9448098FEFD2
:1017200093E0DF91CF911F910F91FF90EF90DF90A9
:10173000CF900C943C090E94B6101F920F920FB6E6
:101740000F9211242F933F938F939F93AF93BF9347
:101750008091E8079091E907A091EA07B091EB0723
:101760003091E70723E0230F2D3720F40196A11DC8
:10177000B11D05C026E8230F0296A11DB11D2093BF
:10178000E7078093E8079093E907A093EA07B093EF
:10179000EB078091EC079091ED07A091EE07B091D7
:1017A000EF070196A11DB11D8093EC079093ED0703
:1017B000A093EE07B093EF07BF91AF919F918F91E8
:1017C0003F912F910F900FBE0F901F9018951F9271
:1017D0000F920FB60F9211242F933F934F935F9365
:1017E0006F937F938F939F93AF93BF93EF93FF93E9
:1017F0008CE594E00E949307FF91EF91BF91AF9128
:101800009F918F917F916F915F914F913F912F9118
:101810000F900FBE0F901F90189589EF94E00E94D3
:10182000B30883E196E00E9499088DE097E00C945C
:101830007F08ECE5F4E01382128288EE93E0A0E0EA
:10184000B0E084839583A683B7838EEC92E0918386
:10185000808385EC90E09587848784EC90E097877F
:10186000868780EC90E0918B808B81EC90E0938B6D
:10187000828B82EC90E0958B848B86EC90E0978B4A
:10188000868B118E128E138E148EEDE0F7E080E1C0
:1018900084A32CE933E0318320832CE533E036A3A5
:1018A00025A39AE097A327E337E031A720A722E3F7
:1018B00037E033832283E3E1F6E084A32EE133E0D3
:1018C000318320832AE033E036A325A39CE097A34D
:1018D0002DE336E031A720A728E336E033832283C7
:1018E000E9EFF4E084A384EF92E09183808380EEBB
:1018F00092E096A385A38EE087A383E295E091A76B
:1019000080A78EE195E0938382830895789484B5CF
:10191000826084BD84B5816084BD85B5826085BDEB
:1019200085B5816085BD80916E00816080936E0079
:10193000109281008091810082608093810080916B
:10194000810081608093810080918000816080931C
:1019500080008091B10084608093B1008091B000DC
:1019600081608093B00080917A00846080937A00D7
:1019700080917A00826080937A0080917A00816001
:1019800080937A0080917A00806880937A00109228
:10199000C100E0916C04F0916D0482E08083E091DD
:1019A0006804F09169041082E0916A04F0916B047C
:1019B0008FEC808310927404E0917004F0917104B4
:1019C00086E08083E0916E04F0916F0480818061F5
:1019D0008083E0916E04F0916F0480818860808341
:1019E000E0916E04F0916F04808180688083E091C3
:1019F0006E04F0916F0480818F7D80830E9438098E
:101A000085E294E00E943C0966E372E08DE097E095
:101A10000E946B0A66E372E08DE097E00E94260B5D
:101A20000E94380962EA71E083E196E00E946B0A45
:101A300062EA71E083E196E00E94260B0E94380979
:101A40006EE071E089EF94E00E946B0A6EE071E055
:101A500089EF94E00E94260B0E9438090E94A7019A
:101A6000FDCFA1E21A2EAA1BBB1BFD010DC0AA1FB0
:101A7000BB1FEE1FFF1FA217B307E407F50720F0F7
:101A8000A21BB30BE40BF50B661F771F881F991F72
:101A90001A9469F760957095809590959B01AC01BB
:101AA000BD01CF010895EE0FFF1F0590F491E02DC9
:101AB00009945058BB27AA270E94710D0C94E40E7C
:101AC0000E94D60E38F00E94DD0E20F039F49F3FC0
:101AD00019F426F40C94D30E0EF4E095E7FB0C9465
:101AE000CD0EE92F0E94F50E58F3BA17620773075F
:101AF0008407950720F079F4A6F50C94170F0EF4DF
:101B0000E0950B2EBA2FA02D0B01B90190010C010D
:101B1000CA01A0011124FF27591B99F0593F50F425
:101B2000503E68F11A16F040A22F232F342F44277D
:101B3000585FF3CF469537952795A795F040539575
:101B4000C9F77EF41F16BA0B620B730B840BBAF045
:101B50009150A1F0FF0FBB1F661F771F881FC2F7B0
:101B60000EC0BA0F621F731F841F48F487957795C4
:101B70006795B795F7959E3F08F0B0CF9395880F7E
:101B800008F09927EE0F9795879508950E94A90E62
:101B900008F481E008950E94DF0D0C94E40E0E9489
:101BA000DD0E58F00E94D60E40F029F45F3F29F078
:101BB0000C94CD0E51110C94180F0C94D30E0E945E
:101BC000F50E68F39923B1F3552391F3951B550B4B
:101BD000BB27AA2762177307840738F09F5F5F4F00
:101BE000220F331F441FAA1FA9F335D00E2E3AF03F
:101BF000E0E832D091505040E695001CCAF72BD057
:101C0000FE2F29D0660F771F881FBB1F26173707A7
:101C10004807AB07B0E809F0BB0B802DBF01FF27D9
:101C200093585F4F3AF09E3F510578F00C94CD0EDB
:101C30000C94180F5F3FE4F3983ED4F386957795A4
:101C40006795B795F7959F5FC9F7880F911D969592
:101C5000879597F90895E1E0660F771F881FBB1FEE
:101C6000621773078407BA0720F0621B730B840B9B
:101C7000BA0BEE1F88F7E09508950E94FD0E88F0DC
:101C80009F5798F0B92F9927B751B0F0E1F0660F40
:101C9000771F881F991F1AF0BA95C9F714C0B13081
:101CA00091F00E94170FB1E008950C94170F672F61
:101CB000782F8827B85F39F0B93FCCF386957795B0
:101CC0006795B395D9F73EF4909580957095619599
:101CD0007F4F8F4F9F4F0895E89409C097FB3EF4C4
:101CE00090958095709561957F4F8F4F9F4F992369
:101CF000A9F0F92F96E9BB279395F69587957795E7
:101D00006795B795F111F8CFFAF4BB0F11F460FFA6
:101D10001BC06F5F7F4F8F4F9F4F16C0882311F0FE
:101D200096E911C0772321F09EE8872F762F05C012
:101D3000662371F096E8862F70E060E02AF09A95AD
:101D4000660F771F881FDAF7880F9695879597F9A2
:101D50000895990F0008550FAA0BE0E8FEEF16163C
:101D60001706E807F907C0F012161306E407F5078F
:101D700098F0621B730B840B950B39F40A2661F003
:101D8000232B242B252B21F408950A2609F4A140A6
:101D9000A6958FEF811D811D089597F99F6780E8B3
:101DA00070E060E008959FEF80EC089500240A94AD
:101DB0001616170618060906089500240A94121626
:101DC0001306140605060895092E0394000C11F459
:101DD000882352F0BB0F40F4BF2B11F460FF04C006
:101DE0006F5F7F4F8F4F9F4F089557FD9058440F5F
:101DF000551F59F05F3F71F04795880F97FB991F6A
:101E000061F09F3F79F08795089512161306140626
:101E1000551FF2CF4695F1DF08C0161617061806B3
:101E2000991FF1CF86957105610508940895E8948E
:101E3000BB2766277727CB0197F908950E94A90E43
:101E400008F48FEF08950E94360F0C94E40E0E9460
:101E5000D60E38F00E94DD0E20F0952311F00C9480
:101E6000CD0E0C94D30E11240C94180F0E94F50E75
:101E700070F3959FC1F3950F50E0551F629FF001DD
:101E8000729FBB27F00DB11D639FAA27F00DB11DF6
:101E9000AA1F649F6627B00DA11D661F829F22277F
:101EA000B00DA11D621F739FB00DA11D621F839F06
:101EB000A00D611D221F749F3327A00D611D231FDC
:101EC000849F600D211D822F762F6A2F11249F572A
:101ED00050409AF0F1F088234AF0EE0FFF1FBB1F2D
:101EE000661F771F881F91505040A9F79E3F5105EC
:101EF00080F00C94CD0E0C94180F5F3FE4F3983EE5
:101F0000D4F3869577956795B795F795E7959F5F95
:101F1000C1F7FE2B880F911D9695879597F9089527
:101F20000E94A90E880B990B08950F931F93CF93CE
:101F3000DF938230910510F482E090E0E091720826
:101F4000F091730820E030E0A0E0B0E0309719F1A4
:101F5000408151810281138148175907C8F08417C5
:101F6000950769F4109731F012960C931297139617
:101F70001C9327C0009372081093730822C0211588
:101F8000310519F04217530718F49A01BD01EF010A
:101F9000DF01F801DBCF21153105F9F0281B390BE2
:101FA0002430310580F48A819B816115710521F00F
:101FB000FB019383828304C090937308809372081B
:101FC000FE01329644C0FE01E20FF31F819391930C
:101FD00022503109398328833AC02091700830910A
:101FE0007108232B41F420910201309103013093B9
:101FF0007108209370082091000130910101211592
:10200000310541F42DB73EB74091040150910501CF
:10201000241B350BE0917008F0917108E217F3076B
:10202000A0F42E1B3F0B2817390778F0AC014E5F48
:102030005F4F2417350748F04E0F5F1F509371080C
:10204000409370088193919302C0E0E0F0E0CF01EB
:10205000DF91CF911F910F910895CF93DF93009758
:1020600009F481C0FC01329713821282A091720898
:10207000B0917308109781F420813181820F931FF2
:1020800020917008309171082817390751F5F093A5
:102090007108E093700867C0ED0120E030E0CE17D2
:1020A000DF0740F44A815B819E0141155105F1F043
:1020B000EA01F5CFD383C28340815181840F951FFC
:1020C000C817D90759F488819981840F951F029602
:1020D000918380838A819B8193838283211531053B
:1020E00029F4F0937308E09372083DC0E901FB8383
:1020F000EA8349915991C40FD51FEC17FD0761F48C
:1021000080819181840F951F0296E90199838883CC
:10211000828193819B838A83E0E0F0E012968D9127
:102120009C911397009719F0FD01DC01F7CF8D9179
:102130009C9111979D012E5F3F4F820F931F20911D
:102140007008309171082817390769F4309729F41D
:10215000109273081092720802C013821282B09318
:102160007108A0937008DF91CF91089581E090E00D
:10217000F8940C94BB1011E0CBE3D1E004C0FE0155
:102180000E94530D2196CC33D107C9F7F894FFCFA5
:10219000000074082000001B362D6C775A4138046B
:1021A000000102030405060708090A0B0C0D0E0FB7
:1021B000101112131415161718191A1B1C1D1E1FA7
:1021C0000000000000112233445566778899AABBAD
:1021D000CCDDEEFF00000000000000000000000069
:1021E00000000000000000008EA2B7CA516745BF82
:1021F000EAFC49904B4960890000000000000000A3
:1022000000000000000000000000000000E0017B72
:1022100027777F3F4A1786F000000001006CB6DB8D
:10222000C0543B59006CB6DBC0543B590000000061
:1022300010004404000102030405060708090A0B04
:102240000C0D0E0F101112131415161700000000BC
:1022500000000000000000000011223344556677A2
:102260008899AABBCCDDEEFF000000000000000052
:10227000000000000000000000000000DDA97CA4B8
:10228000864CDFE06EAF70A0EC0D71910000000095
:10229000000000000000000000000000000000003E
:1022A000006CB6DBC0543B59DA48D90B0000000182
:1022B000006CB6DBC0543B59000000000000000079
:1022C000000000001000500400010203040506078E
:1022D00008090A0B0C0D0E0F0000000000000000A2
:1022E0000000000000000000000000000011223388
:1022F000445566778899AABBCCDDEEFF000000004C
:1023000000000000000000000000000000000000CD
:1023100069C4E0D86A7B0430D8CDB78070B4C55AA0
:1023200000000000000000000000000000000000AD
:10233000000000000000003000000000000000006D
:10234000000000010000000000000000000000008C
:102350000000000000000000100000000000B507B1
:10236000F2086A0102089B0179018D01000000005A
:1023700043084D08940238065006B2059E04CD026B
:1023800000000000B308C3089702940267023E06EB
:102390001D02D801BB01000000005708610894022B
:1023A0003B06C706B2059E04CD0200000000990856
:1023B000A9089702940267023E061D02D801BB01DC
:1023C00000000000000000009B0B9B0B9B0B9B0B75
:1023D0009B0B9B0B000000000000000094029B0B75
:1023E0009B0BB2059E04CD02000000006B0875082F
:1023F000940294021407B2059E04CD02000000006E
:10240000000000009B0B9B0B9B0B9B0B9B0B9B0BE8
:102410009B0B000000002408390897029402670211
:102420003E061D02D801BB01000000007F088F0896
:102430009702940267023E061D02D801BB010D0AF5
:10244000006E616E00696E66006F7666005365749B
:10245000204B6579202E2E2E20007573207065721A
:10246000206F7065726174696F6E2C200041455356
:102470002D3132382D43424320456E63727970749A
:102480000075732070657220627974652C200020BD
:10249000627974657320706572207365636F6E6412
:1024A000004145532D3132382D434243204465636A
:1024B0007279707400506572666F726D616E6365DB
:1024C0002054657374733A004145532D3235362DCF
:1024D000434243004145532D3139322D434243009D
:0C24E0004145532D3132382D434243005A
:00000001FF
