:100000000C943C010C9464010C9464010C94640104
:100010000C9464010C9464010C9464010C946401CC
:100020000C9464010C9464010C9464010C946401BC
:100030000C9464010C9464010C9464010C946401AC
:100040000C94360A0C9464010C94A60A0C94800A51
:100050000C9464010C9464010C9464010C9464018C
:100060000C9464010C94640152096AD53036A538A9
:10007000BF40A39E81F3D7FB7CE339829B2FFF8790
:10008000348E4344C4DEE9CB547B9432A6C2233D74
:10009000EE4C950B42FAC34E082EA16628D924B225
:1000A000765BA2496D8BD12572F8F6648668981646
:1000B000D4A45CCC5D65B6926C704850FDEDB9DAA5
:1000C0005E154657A78D9D8490D8AB008CBCD30A93
:1000D000F7E45805B8B34506D02C1E8FCA3F0F026F
:1000E000C1AFBD0301138A6B3A9111414F67DCEA3E
:1000F00097F2CFCEF0B4E67396AC7422E7AD3585B7
:10010000E2F937E81C75DF6E47F11A711D29C589C0
:100110006FB7620EAA18BE1BFC563E4BC6D27920A2
:100120009ADBC0FE78CD5AF41FDDA8338807C731AB
:10013000B11210592780EC5F60517FA919B54A0DA3
:100140002DE57A9F93C99CEFA0E03B4DAE2AF5B018
:10015000C8EBBB3C83539961172B047EBA77D62634
:10016000E169146355210C7D000102040810204050
:10017000801B36637C777BF26B6FC53001672BFE8B
:10018000D7AB76CA82C97DFA5947F0ADD4A2AF9CED
:10019000A472C0B7FD9326363FF7CC34A5E5F171C4
:1001A000D8311504C723C31896059A071280E2EBCD
:1001B00027B27509832C1A1B6E5AA0523BD6B3295D
:1001C000E32F8453D100ED20FCB15B6ACBBE394AEA
:1001D0004C58CFD0EFAAFB434D338545F9027F50F1
:1001E0003C9FA851A3408F929D38F5BCB6DA2110F0
:1001F000FFF3D2CD0C13EC5F974417C4A77E3D6488
:100200005D197360814FDC222A908846EEB814DEB7
:100210005E0BDBE0323A0A4906245CC2D3AC629141
:1002200095E479E7C8376D8DD54EA96C56F4EA652B
:100230007AAE08BA78252E1CA6B4C6E8DD741F4B2A
:10024000BD8B8A703EB5664803F60E613557B98698
:10025000C11D9EE1F8981169D98E949B1E87E9CE45
:100260005528DF8CA1890DBFE6426841992D0FB05A
:1002700054BB1600D80AF20B11241FBECFEFD8E0F2
:10028000DEBFCDBF13E0A0E0B1E0E4E4FFE102C0D7
:1002900005900D92A433B107D9F726E0A4E3B3E0AB
:1002A00001C01D92AD36B207E1F711E0CBE3D1E01A
:1002B00004C02197FE010E94200CCA33D107C9F760
:1002C0000E94290B0C94950F0C9400003FB7F894F2
:1002D0008091490390914A03A0914B03B0914C0344
:1002E00026B5A89B05C02F3F19F00196A11DB11D91
:1002F0003FBFBA2FA92F982F8827820F911DA11DCC
:10030000B11DBC01CD0142E0660F771F881F991F08
:100310004A95D1F70895CF92DF92EF92FF920F9313
:100320001F93CF93DF936C017A018B01C0E0D0E083
:10033000CE15DF0581F0D8016D918D01D601ED91CB
:10034000FC910190F081E02DC6010995892B11F0F7
:100350002196EECF7E01C701DF91CF911F910F91C2
:10036000FF90EF90DF90CF900895089580E090E0A7
:100370000895FC01538D448D252F30E0842F90E0AB
:10038000821B930B541710F0CF9608950197089590
:10039000FC01918D828D981761F0828DDF01A80F8D
:1003A000B11D5D968C91928D9F5F9F73928F90E0AF
:1003B00008958FEF9FEF0895FC01918D828D98171E
:1003C00031F0828DE80FF11D858D90E008958FEF5B
:1003D0009FEF0895FC01918D228D892F90E0805C24
:1003E0009F4F821B91098F73992708958DE493E0A5
:1003F0000E94EA0121E0892B09F420E0822F089570
:10040000FC01848DDF01A80FB11DA35ABF4F2C91B1
:10041000848D90E001968F739927848FA689B78980
:100420002C93A089B1898C91837080648C93938D77
:10043000848D981306C00288F389E02D80818F7D1A
:1004400080830895EF92FF920F931F93CF93DF93D2
:10045000EC0181E0888F9B8D8C8D981305C0E88915
:10046000F989808185FD26C0F62E0B8D10E00F5F87
:100470001F4F0F731127E02E8C8DE8120CC00FB6A2
:1004800007FCFACFE889F989808185FFF5CFCE0195
:100490000E940002F1CF8B8DFE01E80FF11DE35A9F
:1004A000FF4FF0829FB7F8940B8FEA89FB89808118
:1004B00080620AC09FB7F894EE89FF896083E8895B
:1004C000F98980818370806480839FBF81E090E0A0
:1004D000DF91CF911F910F91FF90EF900895CF93EF
:1004E000DF93EC01888D8823C9F0EA89FB8980813C
:1004F00085FD05C0A889B9898C9186FD0FC00FB60E
:1005000007FCF5CF808185FFF2CFA889B9898C914E
:1005100085FFEDCFCE010E940002E7CFDF91CF91A2
:10052000089580E090E0892B29F00E94F601811166
:100530000C9400000895CF93DF93DC01EB01E98177
:10054000F0E0ED58FE4F8491E42FF0E0E859FE4FC3
:10055000E491E827EC93EA81F0E0ED58FE4FE49156
:100560001196EC931197EB81F0E0ED58FE4FE4917A
:100570001296EC931297E881F0E0ED58FE4FE4916B
:100580001396EC93DF91CF910895DC011396ED91D2
:10059000FC91149712968C919F0140E1849F200D4D
:1005A000311D1124C9014096108231968E179F0784
:1005B000D9F708952F923F924F925F926F927F9258
:1005C0008F929F92AF92BF92CF92DF92EF92FF9263
:1005D0000F931F93CF93DF9300D000D0CDB7DEB73A
:1005E0008C01FB015081918182814381252F30E074
:1005F0003C832B83220F331F7BE1272E239E302C3D
:1006000011243226A92FB0E09D01220F331F239E13
:10061000B02C1124B226482E512C9201220F331FE8
:10062000239E902C11249226642F70E09B01220FB0
:10063000331F239E202C11242226EB81FC81EE0FF8
:10064000FF1FEE0FFF1FFA83E9836D01CC0CDD1C49
:10065000CC0CDD1CED2CFF2497012A5F3E4FF901E5
:1006600080808C246201CC0CDD1CCC0CDD1CED2CBC
:10067000FF2497012A5F3E4FF901A080AC246B0153
:10068000CC0CDD1CCC0CDD1CED2CFF2497012A5F6B
:100690003E4FF901D080DC24EB80FC80F3E0EE0CCF
:1006A000FF1CFA95E1F72F2D33272A5F3E4FF90102
:1006B000F081FE25FB833D0133E0660C771C3A9503
:1006C000E1F7A72DBB27AA5FBE4FAC91A625F3E0AB
:1006D000440C551CFA95E1F7E52DFF27EA5FFE4F24
:1006E000E0814E2623E0660F771F2A95E1F7E72F7A
:1006F000FF27EA5FFE4FE0816E2729813A81E32FD1
:10070000FF27EA5FFE4F3081298123273B81232782
:10071000392F382734273A253A27342536273325E9
:100720003B253227F8013083352F382734273825E9
:100730003D25FB813F273A2734253627B326B924A8
:10074000F801B18295274927A426AA26A424A62623
:100750009A2492242925228398279825C92ECD24CE
:10076000FB81FC25AF274A2664256325262F2225F9
:10077000F80123830F900F900F900F90DF91CF918E
:100780001F910F91FF90EF90DF90CF90BF90AF90AF
:100790009F908F907F906F905F904F903F902F90A1
:1007A00008951F93CF93DF93FC01CB01DB011C91D4
:1007B00011967C9111971296BC91EC01AB81812F1F
:1007C00090E0880F991FCBE1C99F602D1124682705
:1007D000472F50E0440F551FC59F802D11244827F7
:1007E0002B2F30E0220F331FC39F802D1124282789
:1007F0008A2F90E0880F991FC99FC02D11248C2744
:10080000972F9B279A27962794279083912F9B2792
:100810009A274927422741837127A7272A27282774
:1008200022837B27762787278383DF91CF911F91B0
:100830000895CF93DF93DC01EB01E881F0E0E85904
:10084000FF4FE491EC93ED85F0E0E859FF4FE49120
:100850001196EC931197EA85F0E0E859FF4FE49187
:100860001296EC931297EF81F0E0E859FF4FE49174
:100870001396EC931397EC81F0E0E859FF4FE49165
:100880001496EC931497E981F0E0E859FF4FE49156
:100890001596EC931597EE85F0E0E859FF4FE4913B
:1008A0001696EC931697EB85F0E0E859FF4FE4912C
:1008B0001796EC931797E885F0E0E859FF4FE4911D
:1008C0001896EC931897ED81F0E0E859FF4FE4910A
:1008D0001996EC931997EA81F0E0E859FF4FE491FB
:1008E0001A96EC931A97EF85F0E0E859FF4FE491E0
:1008F0001B96EC931B97EC85F0E0E859FF4FE491D1
:100900001C96EC931C97E985F0E0E859FF4FE491C1
:100910001D96EC931D97EE81F0E0E859FF4FE491AE
:100920001E96EC931E97EB81F0E0E859FF4FE4919F
:100930001F96EC93DF91CF910895AF92BF92CF9223
:10094000DF92EF92FF920F931F93CF93DF93CDB778
:10095000DEB7A0970FB6F894DEBF0FBECDBF6C0117
:100960007B01DC0112968C91129713960D911C91CC
:100970001497B0E18B9F000D111D1124FA0198010D
:10098000BE016F5F7F4F405F5F4F5B019191D90167
:100990008D919D018927DB018D93BD01E417F5073A
:1009A000A9F7B501CE0141960E941904F601D28043
:1009B000D8015097F1E0FD1580F58D01FD01DE01B4
:1009C00051969801205F3F4F81919C9189278D938B
:1009D0002E173F07C9F7BE016F5E7F4FC5010E940A
:1009E000DA02BE016B5E7F4FCE0105960E94DA02ED
:1009F000BE01675E7F4FCE0109960E94DA02BE01FA
:100A0000635E7F4FCE010D960E94DA02B501CE01E2
:100A100041960E941904DA94CBCFAE014F5E5F4F2E
:100A2000C701FA013191AF012D912327FC012193D8
:100A3000CF010A171B07A9F7A0960FB6F894DEBFDF
:100A40000FBECDBFDF91CF911F910F91FF90EF901F
:100A5000DF90CF90BF90AF900895CF93DF93DC01EC
:100A6000EB01E881F0E0ED58FE4FE491EC93ED816D
:100A7000F0E0ED58FE4FE4911196EC931197EA8562
:100A8000F0E0ED58FE4FE4911296EC931297EF854B
:100A9000F0E0ED58FE4FE4911396EC931397EC8140
:100AA000F0E0ED58FE4FE4911496EC931497E9852D
:100AB000F0E0ED58FE4FE4911596EC931597EE8516
:100AC000F0E0ED58FE4FE4911696EC931697EB810B
:100AD000F0E0ED58FE4FE4911796EC931797E885F8
:100AE000F0E0ED58FE4FE4911896EC931897ED85E1
:100AF000F0E0ED58FE4FE4911996EC931997EA81D6
:100B0000F0E0ED58FE4FE4911A96EC931A97EF81BE
:100B1000F0E0ED58FE4FE4911B96EC931B97EC85AB
:100B2000F0E0ED58FE4FE4911C96EC931C97E981A0
:100B3000F0E0ED58FE4FE4911D96EC931D97EE8189
:100B4000F0E0ED58FE4FE4911E96EC931E97EB8576
:100B5000F0E0ED58FE4FE4911F96EC93DF91CF91BA
:100B60000895BF92CF92DF92EF92FF920F931F935F
:100B7000CF93DF93CDB7DEB7A0970FB6F894DEBF63
:100B80000FBECDBF7C016B01DC0113960D911C9152
:100B90001497FA01A801BF01605F7F4F9E012F5F8C
:100BA0003F4F8191DA019D91AD019827D9019D9325
:100BB0009D01E617F707A9F7005F1F4FF701B28005
:100BC000CE0141967C0191E0BE016F5F7F4F9B1586
:100BD00058F5C7010E942D05B701CE0101960E946C
:100BE000D103BE016B5E7F4FCE0105960E94D103FB
:100BF000BE01675E7F4FCE0109960E94D103BE0100
:100C0000635E7F4FCE010D960E94D103D801FE0195
:100C100031968D91908189278193EE16FF06C9F751
:100C2000005F1F4FBA94CFCFC7010E942D05F70177
:100C3000C601AE014F5D5F4F3191D8012D918D01FD
:100C40002327DC012D93CD014E175F07A9F7A0964E
:100C50000FB6F894DEBF0FBECDBFDF91CF911F91CD
:100C60000F91FF90EF90DF90CF90BF90089580E1BB
:100C700090E0089580E290E00895FC0135968B5055
:100C80009F4F10823196E817F907D9F7089588E148
:100C900090E00895FC0135968B529F4F108231965B
:100CA000E817F907D9F70895FC0135968B549F4F43
:100CB00010823196E817F907D9F70895009769F07F
:100CC000FC0101900020E9F73197AF01481B590B57
:100CD000BC018DE493E00C948B0180E090E00895DA
:100CE00082E292E00C945E06CF93DF930E945E0650
:100CF000EC010E9470068C0F9D1FDF91CF9108952B
:100D00000C945E068F929F92AF92BF920F931F93A7
:100D1000CF93DF93CDB7DEB7A1970FB6F894DEBFC0
:100D20000FBECDBF19A2423008F44AE08E010F5D1C
:100D30001F4F842E912CA12CB12CA50194010E944F
:100D4000FE0BE62FB901CA0101501109EA3014F473
:100D5000E05D01C0E95CD801EC93232B242B252B0B
:100D600061F7C8010E945E06A1960FB6F894DEBF37
:100D70000FBECDBFDF91CF911F910F91BF90AF906C
:100D80009F908F900895CF93DF93BC0180E090E017
:100D90004AE00E948206EC010E9470068C0F9D1FA3
:100DA000DF91CF9108958F929F92AF92BF92CF9291
:100DB000DF92EF92FF920F931F93CF93DF936B011C
:100DC0007C01142F9B01AC010E945D0E882319F059
:100DD00085E292E027C046015701E894B7F82FEF6B
:100DE0003FEF4FE75FE7C501B4010E945D0E81113F
:100DF0000DC02FEF3FEF4FE75FE7C501B4010E9441
:100E0000930C18161CF489E292E00CC02FEF3FEF10
:100E10004FE75FE4C701B6010E94EB0D181684F49A
:100E20008DE292E0DF91CF911F910F91FF90EF90B3
:100E3000DF90CF90BF90AF909F908F900C945E0604
:100E40002FEF3FEF4FE75FECC701B6010E94930C15
:100E500087FDE6CF20E030E0A901C701B6010E947E
:100E6000930C87FF0BC06DE28DE493E00E94220299
:100E7000EC01F7FAF094F7F8F09402C0C0E0D0E08B
:100E800000E060E070E080E09FE3101741F020E0B8
:100E900030E040E251E40E94980C0F5FF6CFA701CA
:100EA00096010E94270C6B017C010E940A0D4B01E8
:100EB0005C014AE00E948206C80FD91F1123B9F1D4
:100EC000C501B4010E94390D9B01AC01C701B601F7
:100ED0000E94260C6B017C016EE28DE493E00E947F
:100EE0002202C80FD91F20E030E040E251E4C701E0
:100EF000B6010E94F00D4B015C010E940A0D6B01CE
:100F0000E12CF12C4AE0C701B6010E948206C80F0D
:100F1000D91FC701B6010E94390D9B01AC01C50163
:100F2000B4010E94260C6B017C011150E1F6CE0148
:100F3000DF91CF911F910F91FF90EF90DF90CF90B5
:100F4000BF90AF909F908F9008954F925F926F9255
:100F50007F92AF92BF92CF92DF92EF92FF920F9368
:100F60001F93CF93DF93EC018B01FB018191919152
:100F70006F010E94800681E392E00E9480060E9439
:100F800066012B013C0190E1E92E97E2F92EE88100
:100F9000F981A084B1840680F781E02DCE01099506
:100FA000AC01B601CE01F5010995F1E0EF1AF108A7
:100FB00071F70E94660164197509860997090E94F4
:100FC000390D6B017C0120E030E44CE156E40E94D5
:100FD000980C42E00E94D3068FE392E00E948006C4
:100FE000A701960169EF72E085E190E50E94980CF7
:100FF00042E00E94D30684E792E00E947406F80162
:10100000808191810E94800682E592E00E948006A4
:101010000E9466012B013C0188E8E82E83E1F82E4E
:10102000E881F9810284F385E02D44E353E0BA01BD
:10103000CE010995F1E0EF1AF10891F70E946601DF
:1010400064197509860997090E94390D6B017C01A5
:1010500020E030E44CE957E40E94980C42E00E9402
:10106000D30680E692E00E948006A701960169EF10
:1010700072E085E991E50E94980C42E00E94D30657
:101080008EE692E00E947406F801808191810E94B0
:10109000800680E892E00E9480060E9466016B0153
:1010A0007C0108E813E1E881F9810484F585E02DED
:1010B00044E353E0BA01CE0109950150110999F7B3
:1010C0000E9466016C197D098E099F090E94390DE5
:1010D0006B017C0120E030E44CE957E40E94980C5D
:1010E00042E00E94D30680E692E00E948006A701BB
:1010F000960169EF72E085E991E50E94980C42E063
:101100000E94D3068EE692E00E947406DF91CF9192
:101110001F910F91FF90EF90DF90CF90BF90AF9015
:101120007F906F905F904F900C9470060E94830F99
:10113000EF92FF920F931F93CF93DF9340325105AD
:1011400009F065C0FB01EC01259680E2DE0101900B
:101150000D928A95E1F714E301E068E06830D9F474
:10116000402FBE01645E7F4FCE0180960E949B029D
:1011700098A18881892788A399A18981892789A332
:101180009AA18A8189278AA39BA18B8189278BA316
:101190000F5F60E035C0F880B981AA817B814C8DFA
:1011A0002D8D8E8DEF8CE42F6430F9F4F0E0ED5846
:1011B000FE4F5491E22FF0E0ED58FE4F3491E82FAE
:1011C000F0E0ED58FE4F9491EE2DF0E0ED58FE4F1B
:1011D0008491EF2DE527E8A3EB2FE327E9A3EA2F7E
:1011E000E927EAA378277BA30BC0EF25E8A3E22F2A
:1011F000EB27E9A3E82FEA27EAA3EE2DE727EBA3E5
:1012000024966F5F115009F0A9CF81E001C080E002
:10121000DF91CF911F910F91FF90EF9008950F9361
:101220001F93CF93DF934831510509F03FC0FB0175
:10123000EC01259688E1DE0101900D928A95E1F797
:101240001EE201E086E08630D9F4402FBE016C5EDC
:101250007F4FCE0148960E949B02988D88818927F6
:10126000888F998D89818927898F9A8D8A8189278D
:101270008A8F9B8D8B8189278B8F0F5F80E010C0B9
:101280002C8998819227988F2D8999819227998FFF
:101290002E899A8192279A8F2F899B8192279B8FE3
:1012A00024968F5F115079F681E001C080E0DF91D4
:1012B000CF911F910F9108950F931F93CF93DF93B9
:1012C0004031510509F03FC0FB01EC01259680E15A
:1012D000DE0101900D928A95E1F718E201E084E0C9
:1012E0008430D9F4402FBE01645F7F4FCE01409619
:1012F0000E949B02988988818927888B9989898196
:101300008927898B9A898A8189278A8B9B898B81F6
:1013100089278B8B0F5F80E010C02C8598819227E6
:10132000988B2D8599819227998B2E859A8192276A
:101330009A8B2F859B8192279B8B24968F5F1150D0
:1013400079F681E001C080E0DF91CF911F910F918C
:101350000895CF93DF93EC010E943D06CE01DF910B
:10136000CF910C94FA0ECF93DF93EC010E944A06C2
:10137000CE01DF91CF910C94FA0ECF93DF93EC0165
:101380000E945406CE01DF91CF910C94FA0ECF92B9
:10139000DF92EF92FF920F931F93CF93DF93EC01B5
:1013A0008B01FB01819191917F010E9480068EE863
:1013B00092E00E948006E881F981C084D184068091
:1013C000F781E02DCE010995AC01B701CE01F60100
:1013D00009957801F2E2EF0EF11CE881F9810284AF
:1013E000F385E02DA70164E373E0CE010995680160
:1013F00082E3C80ED11C40E150E0B60184E393E0E3
:101400000E94880F892B19F48FE992E002C086EAC6
:1014100092E00E947406F801808191810E9480060A
:101420008DEA92E00E948006E881F9810484F585C6
:10143000E02DA60164E373E0CE01099540E150E0A0
:10144000B70184E393E00E94880F892B19F48FE998
:1014500092E002C086EA92E0DF91CF911F910F9156
:10146000FF90EF90DF90CF900C9474061F920F9234
:101470000FB60F9211242F933F938F939F93AF93A7
:10148000BF938091450390914603A0914703B0918B
:1014900048033091440323E0230F2D3720F40196B5
:1014A000A11DB11D05C026E8230F0296A11DB11D87
:1014B000209344038093450390934603A0934703EE
:1014C000B09348038091490390914A03A0914B0344
:1014D000B0914C030196A11DB11D809349039093D7
:1014E0004A03A0934B03B0934C03BF91AF919F91DC
:1014F0008F913F912F910F900FBE0F901F901895D5
:101500001F920F920FB60F9211242F933F934F9378
:101510005F936F937F938F939F93AF93BF93EF935B
:10152000FF938DE493E00E940002FF91EF91BF9141
:10153000AF919F918F917F916F915F914F913F916B
:101540002F910F900FBE0F901F9018951F920F9222
:101550000FB60F9211242F938F939F93EF93FF93C6
:10156000E0915D03F0915E038081E0916303F0916F
:10157000640382FD12C09081809166038F5F8F7338
:1015800020916703821751F0E0916603F0E0E35B7E
:10159000FC4F958F8093660301C08081FF91EF918E
:1015A0009F918F912F910F900FBE0F901F901895C4
:1015B000EDE4F3E01382128288EE93E0A0E0B0E065
:1015C00084839583A683B78388ED91E0918380839C
:1015D00085EC90E09587848784EC90E097878687F8
:1015E00080EC90E0918B808B81EC90E0938B828BF0
:1015F00082EC90E0958B848B86EC90E0978B868BC9
:10160000118E128E138E148EE4EBF5E082E192E0DF
:10161000918380838AE0828389EB95E0948383833E
:10162000EFEDF4E08EEF91E0918380838CE0828394
:1016300084EE94E094838383EAEEF3E08AEE91E013
:10164000918380838EE082838FEE93E09483838303
:101650000895789484B5826084BD84B5816084BD2A
:1016600085B5826085BD85B5816085BD80916E0040
:10167000816080936E001092810080918100826071
:1016800080938100809181008160809381008091AE
:1016900080008160809380008091B100846080939D
:1016A000B1008091B00081608093B00080917A0099
:1016B000846080937A0080917A00826080937A00BF
:1016C00080917A00816080937A0080917A008068AE
:1016D00080937A001092C100E0915D03F0915E0367
:1016E00082E08083E0915903F0915A031082E091E7
:1016F0005B03F0915C038FEC808310926503E091B3
:101700006103F091620386E08083E0915F03F091D2
:101710006003808180618083E0915F03F0916003CA
:10172000808188608083E0915F03F0916003808115
:1017300080688083E0915F03F091600380818F7DFA
:1017400080830E9470068EEB92E00E9474068BEC00
:1017500092E00E94800685EB90E00E94C30687ED30
:1017600092E00E94800685ED90E00E94C30683EE21
:1017700092E00E94800685EF90E00E94C3060E94DE
:1017800070068FEE92E00E94740662E971E084EBCD
:1017900095E00E94C70960E571E08FED94E00E943A
:1017A000C7096EE071E08AEE93E00E94C7090E94CB
:1017B00070068DEF92E00E94740662E971E084EB9E
:1017C00095E00E94A50760E571E08FED94E00E942E
:1017D000A5076EE071E08AEE93E00E94A5070E94E3
:1017E0009102FDCF8AEE93E00E943D068FED94E0DA
:1017F0000E944A0684EB95E00C945406A1E21A2E4E
:10180000AA1BBB1BFD010DC0AA1FBB1FEE1FFF1FA4
:10181000A217B307E407F50720F0A21BB30BE40BF4
:10182000F50B661F771F881F991F1A9469F760953B
:101830007095809590959B01AC01BD01CF010895F5
:10184000EE0FFF1F0590F491E02D09945058BB272F
:10185000AA270E943E0C0C94B10D0E94A30D38F0F3
:101860000E94AA0D20F039F49F3F19F426F40C943D
:10187000A00D0EF4E095E7FB0C949A0DE92F0E9461
:10188000C20D58F3BA17620773078407950720F053
:1018900079F4A6F50C94E40D0EF4E0950B2EBA2F16
:1018A000A02D0B01B90190010C01CA01A001112466
:1018B000FF27591B99F0593F50F4503E68F11A1612
:1018C000F040A22F232F342F4427585FF3CF4695A3
:1018D00037952795A795F0405395C9F77EF41F16C5
:1018E000BA0B620B730B840BBAF09150A1F0FF0F8F
:1018F000BB1F661F771F881FC2F70EC0BA0F621F7B
:10190000731F841F48F4879577956795B795F7956A
:101910009E3F08F0B0CF9395880F08F09927EE0FFF
:101920009795879508950E94760D08F481E00895B3
:101930000E94AC0C0C94B10D0E94AA0D58F00E94AC
:10194000A30D40F029F45F3F29F00C949A0D51113A
:101950000C94E50D0C94A00D0E94C20D68F3992320
:10196000B1F3552391F3951B550BBB27AA2762179B
:101970007307840738F09F5F5F4F220F331F441FA8
:10198000AA1FA9F335D00E2E3AF0E0E832D09150DC
:101990005040E695001CCAF72BD0FE2F29D0660FC9
:1019A000771F881FBB1F261737074807AB07B0E80C
:1019B00009F0BB0B802DBF01FF2793585F4F3AF012
:1019C0009E3F510578F00C949A0D0C94E50D5F3F05
:1019D000E4F3983ED4F3869577956795B795F79598
:1019E0009F5FC9F7880F911D9695879597F9089580
:1019F000E1E0660F771F881FBB1F6217730784071C
:101A0000BA0720F0621B730B840BBA0BEE1F88F72A
:101A1000E09508950E94CA0D88F09F5798F0B92F5D
:101A20009927B751B0F0E1F0660F771F881F991F13
:101A30001AF0BA95C9F714C0B13091F00E94E40DC4
:101A4000B1E008950C94E40D672F782F8827B85FD4
:101A500039F0B93FCCF3869577956795B395D9F76B
:101A60003EF490958095709561957F4F8F4F9F4F75
:101A70000895E89409C097FB3EF490958095709581
:101A800061957F4F8F4F9F4F9923A9F0F92F96E9CA
:101A9000BB279395F695879577956795B795F1113F
:101AA000F8CFFAF4BB0F11F460FF1BC06F5F7F4FDC
:101AB0008F4F9F4F16C0882311F096E911C07723EE
:101AC00021F09EE8872F762F05C0662371F096E8F7
:101AD000862F70E060E02AF09A95660F771F881FC6
:101AE000DAF7880F9695879597F90895990F00086A
:101AF000550FAA0BE0E8FEEF16161706E807F907E0
:101B0000C0F012161306E407F50798F0621B730B7A
:101B1000840B950B39F40A2661F0232B242B252BFB
:101B200021F408950A2609F4A140A6958FEF811D9E
:101B3000811D089597F99F6780E870E060E008953F
:101B40009FEF80EC089500240A94161617061806D5
:101B50000906089500240A941216130614060506B1
:101B60000895092E0394000C11F4882352F0BB0F42
:101B700040F4BF2B11F460FF04C06F5F7F4F8F4FA5
:101B80009F4F089557FD9058440F551F59F05F3FE0
:101B900071F04795880F97FB991F61F09F3F79F08F
:101BA00087950895121613061406551FF2CF469511
:101BB000F1DF08C0161617061806991FF1CF869593
:101BC0007105610508940895E894BB276627772777
:101BD000CB0197F908950E94760D08F48FEF0895D0
:101BE0000E94030E0C94B10D0E94A30D38F00E94C8
:101BF000AA0D20F0952311F00C949A0D0C94A00DD1
:101C000011240C94E50D0E94C20D70F3959FC1F351
:101C1000950F50E0551F629FF001729FBB27F00D9A
:101C2000B11D639FAA27F00DB11DAA1F649F6627EF
:101C3000B00DA11D661F829F2227B00DA11D621F3E
:101C4000739FB00DA11D621F839FA00D611D221FF8
:101C5000749F3327A00D611D231F849F600D211DDC
:101C6000822F762F6A2F11249F5750409AF0F1F05F
:101C700088234AF0EE0FFF1FBB1F661F771F881FC8
:101C800091505040A9F79E3F510580F00C949A0D59
:101C90000C94E50D5F3FE4F3983ED4F38695779579
:101CA0006795B795F795E7959F5FC1F7FE2B880F6E
:101CB000911D9695879597F908950E94760D880B4A
:101CC000990B08950F931F93CF93DF938230910563
:101CD00010F482E090E0E0916B06F0916C0620E059
:101CE00030E0A0E0B0E0309719F1408151810281ED
:101CF000138148175907C8F08417950769F410979E
:101D000031F012960C93129713961C9327C00093F0
:101D10006B0610936C0622C02115310519F042178D
:101D2000530718F49A01BD01EF01DF01F801DBCF81
:101D300021153105F9F0281B390B2430310580F4C9
:101D40008A819B816115710521F0FB019383828358
:101D500004C090936C0680936B06FE01329644C0DB
:101D6000FE01E20FF31F81939193225031093983D1
:101D700028833AC02091690630916A06232B41F4EA
:101D8000209102013091030130936A062093690685
:101D900020910001309101012115310541F42DB749
:101DA0003EB74091040150910501241B350BE09191
:101DB0006906F0916A06E217F307A0F42E1B3F0BA9
:101DC0002817390778F0AC014E5F5F4F24173507AD
:101DD00048F04E0F5F1F50936A0640936906819347
:101DE000919302C0E0E0F0E0CF01DF91CF911F912D
:101DF0000F910895CF93DF93009709F481C0FC0100
:101E0000329713821282A0916B06B0916C061097E4
:101E100081F420813181820F931F209169063091D6
:101E20006A062817390751F5F0936A06E0936906A8
:101E300067C0ED0120E030E0CE17DF0740F44A81B3
:101E40005B819E0141155105F1F0EA01F5CFD38385
:101E5000C28340815181840F951FC817D90759F457
:101E600088819981840F951F0296918380838A814E
:101E70009B81938382832115310529F4F0936C06AD
:101E8000E0936B063DC0E901FB83EA8349915991D8
:101E9000C40FD51FEC17FD0761F480819181840F79
:101EA000951F0296E90199838883828193819B83A0
:101EB0008A83E0E0F0E012968D919C911397009751
:101EC00019F0FD01DC01F7CF8D919C9111979D01D7
:101ED0002E5F3F4F820F931F2091690630916A0653
:101EE0002817390769F4309729F410926C0610927C
:101EF0006B0602C013821282B0936A06A093690631
:101F0000DF91CF91089581E090E0F8940C94950FC3
:101F1000FB01DC0104C08D910190801921F4415036
:101F20005040C8F7881B990B089511E0CBE3D1E02E
:101F300004C0FE010E94200C2196CC33D107C9F7C2
:041F4000F894FFCF43
:101F440000006D062000001B362D6C775A411003EB
:101F5400000102030405060708090A0B0C0D0E0F05
:101F6400101112131415161718191A1B1C1D1E1FF5
:101F740000112233445566778899AABBCCDDEEFF65
:101F84008EA2B7CA516745BFEAFC49904B496089A4
:101F94001C03000102030405060708090A0B0C0DC3
:101FA4000E0F101112131415161700000000000074
:101FB400000000112233445566778899AABBCCDD12
:101FC400EEFFDDA97CA4864CDFE06EAF70A0EC0DC3
:101FD40071912803000102030405060708090A0B8E
:101FE4000C0D0E0F000000000000000000000000B7
:101FF4000000000000112233445566778899AABB7B
:10200400CCDDEEFF69C4E0D86A7B0430D8CDB7805C
:1020140070B4C55A0000000022028B01B9016F029E
:10202400EA01C801DC01000000003D06A9093706E9
:102034003A069808B1059D04C502000000004A064E
:10204400B309370647060F09B1059D04C502000010
:1020540000005406BD09370637065C09B1059D0426
:10206400C5020D0A006E616E00696E66006F7666C9
:102074000020536574204B6579202E2E2E20007588
:102084007320706572206F7065726174696F6E2C55
:10209400200020456E6372797074202E2E2E20004D
:1020A40075732070657220627974652C200020623B
:1020B4007974657320706572207365636F6E640054
:1020C4002044656372797074202E2E2E20002045E2
:1020D4006E6372797074696F6E202E2E2E200050FC
:1020E4006173736564004661696C656400204465CE
:1020F4006372797074696F6E202E2E2E20005374D3
:102104006174652053697A65733A004145533132ED
:1021140038202E2E2E2000414553313932202E2EC8
:102124002E2000414553323536202E2E2E200054C9
:1021340065737420566563746F72733A00506572E8
:10214400666F726D616E63652054657374733A00D3
:102154004145532D3235362D454342004145532DDB
:102164003139322D454342004145532D3132382D0A
:04217400454342009D
:00000001FF
