:100000000C943C010C9464010C9464010C94640104
:100010000C9464010C9464010C9464010C946401CC
:100020000C9464010C9464010C9464010C946401BC
:100030000C9464010C9464010C9464010C946401AC
:100040000C94070C0C9464010C9474080C944E08E6
:100050000C9464010C9464010C9464010C9464018C
:100060000C9464010C946401000102040810204007
:10007000801B36637C777BF26B6FC53001672BFE8C
:10008000D7AB76CA82C97DFA5947F0ADD4A2AF9CEE
:10009000A472C0B7FD9326363FF7CC34A5E5F171C5
:1000A000D8311504C723C31896059A071280E2EBCE
:1000B00027B27509832C1A1B6E5AA0523BD6B3295E
:1000C000E32F8453D100ED20FCB15B6ACBBE394AEB
:1000D0004C58CFD0EFAAFB434D338545F9027F50F2
:1000E0003C9FA851A3408F929D38F5BCB6DA2110F1
:1000F000FFF3D2CD0C13EC5F974417C4A77E3D6489
:100100005D197360814FDC222A908846EEB814DEB8
:100110005E0BDBE0323A0A4906245CC2D3AC629142
:1001200095E479E7C8376D8DD54EA96C56F4EA652C
:100130007AAE08BA78252E1CA6B4C6E8DD741F4B2B
:10014000BD8B8A703EB5664803F60E613557B98699
:10015000C11D9EE1F8981169D98E949B1E87E9CE46
:100160005528DF8CA1890DBFE6426841992D0FB05B
:1001700054BB1652096AD53036A538BF40A39E81BC
:10018000F3D7FB7CE339829B2FFF87348E4344C433
:10019000DEE9CB547B9432A6C2233DEE4C950B4254
:1001A000FAC34E082EA16628D924B2765BA2496D07
:1001B0008BD12572F8F66486689816D4A45CCC5D61
:1001C00065B6926C704850FDEDB9DA5E154657A7DA
:1001D0008D9D8490D8AB008CBCD30AF7E45805B849
:1001E000B34506D02C1E8FCA3F0F02C1AFBD03011D
:1001F000138A6B3A9111414F67DCEA97F2CFCEF048
:10020000B4E67396AC7422E7AD3585E2F937E81CA5
:1002100075DF6E47F11A711D29C5896FB7620EAA85
:1002200018BE1BFC563E4BC6D279209ADBC0FE7826
:10023000CD5AF41FDDA8338807C731B112105927F2
:1002400080EC5F60517FA919B54A0D2DE57A9F9327
:10025000C99CEFA0E03B4DAE2AF5B0C8EBBB3C8398
:10026000539961172B047EBA77D626E1691463553A
:10027000210C7D00420D360D11241FBECFEFD8E0BA
:10028000DEBFCDBF12E0A0E0B1E0EEE7F2E202C0D7
:1002900005900D92AC3DB107D9F727E0ACEDB2E087
:1002A00001C01D92A033B207E1F711E0CBE3D1E02A
:1002B00004C02197FE010E94C30DCA33D107C9F7BC
:1002C0000E94510C0C9432110C940000CF92DF92DA
:1002D000EF92FF920F931F93CF93DF936C017A01FC
:1002E0008B01C0E0D0E0CE15DF0581F0D8016D9123
:1002F0008D01D601ED91FC910190F081E02DC601B8
:100300000995892B11F02196EECF7E01C701DF916F
:10031000CF911F910F91FF90EF90DF90CF900895B4
:10032000089580E090E00895FC01538D448D252FC1
:1003300030E0842F90E0821B930B541710F0CF967F
:10034000089501970895FC01918D828D981761F0B1
:10035000828DDF01A80FB11D5D968C91928D9F5FFC
:100360009F73928F90E008958FEF9FEF0895FC01A7
:10037000918D828D981731F0828DE80FF11D858D5A
:1003800090E008958FEF9FEF0895FC01918D228DED
:10039000892F90E0805C9F4F821B91098F73992772
:1003A00008958CED92E00E94C50121E0892B09F4AB
:1003B00020E0822F0895FC01848DDF01A80FB11D7C
:1003C000A35ABF4F2C91848D90E001968F7399278B
:1003D000848FA689B7892C93A089B1898C91837069
:1003E00080648C93938D848D981306C00288F38962
:1003F000E02D80818F7D80830895EF92FF920F938F
:100400001F93CF93DF93EC0181E0888F9B8D8C8DC0
:10041000981305C0E889F989808185FD26C0F62EEC
:100420000B8D10E00F5F1F4F0F731127E02E8C8D87
:10043000E8120CC00FB607FCFACFE889F989808171
:1004400085FFF5CFCE010E94DB01F1CF8B8DFE0140
:10045000E80FF11DE35AFF4FF0829FB7F8940B8F1E
:10046000EA89FB89808180620AC09FB7F894EE898F
:10047000FF896083E889F989808183708064808343
:100480009FBF81E090E0DF91CF911F910F91FF908E
:10049000EF900895CF93DF93EC01888D8823C9F006
:1004A000EA89FB89808185FD05C0A889B9898C917D
:1004B00086FD0FC00FB607FCF5CF808185FFF2CF18
:1004C000A889B9898C9185FFEDCFCE010E94DB010F
:1004D000E7CFDF91CF91089580E090E0892B29F05C
:1004E0000E94D10181110C9400000895DC01ED916E
:1004F000FC910484F585E02D09944F925F927F92E0
:100500008F929F92AF92BF92CF92DF92EF92FF9223
:100510000F931F93CF93DF93EC017B016A01890155
:100520005C0164E0A60EB11C4C0174E1870E911CC5
:1005300040E1742E0115110509F445C08CA18031EC
:10054000E8F08A819B81DC01ED91FC910284F385C6
:10055000E02DA501B40109951CA24DA120E181E087
:1005600090E0421758F42150FE01E20FF11D348152
:10057000830F911D8483892F9927F3CF8CA1472D59
:10058000481B842F90E00817190708F4402F842F88
:1005900090E0081B190BD6012701411105C0E80E98
:1005A000F91EC80ED91EC6CF5D912CA131E0320FC5
:1005B0003CA3FE01E20FF11D24892527F2012193BE
:1005C0002F014150EACFDF91CF911F910F91FF9002
:1005D000EF90DF90CF90BF90AF909F908F907F90E3
:1005E0005F904F900895EF92FF920F931F93CF93D8
:1005F000DF93EC018B017A018A819B81DC01ED9113
:10060000FC910480F581E02D0995409789F48A8159
:100610009B81DC01ED91FC910084F185E02DA70127
:10062000B801DF91CF911F910F91FF90EF90099446
:1006300080E0DF91CF911F910F91FF90EF9008958F
:10064000DC0112968D919C911397DC01ED91FC9148
:100650000680F781E02D09949C01205F3F4FFC014B
:1006600010823196E217F307D9F70895CF93DF93FD
:10067000EC018A819B81DC01ED91FC910684F78578
:10068000E02D0995CE0104960E942C03CE014496DC
:100690000E942C0380E18CA3DF91CF910895CF932A
:1006A000DF93EC018A819B81DC01ED91FC91068452
:1006B000F785E02D0995CE0104960E942C03CE010A
:1006C00044960E942C0380E18CA3DF91CF91089582
:1006D000AF92BF92CF92DF92EF92FF920F931F9350
:1006E000CF93DF936C018B01EA0179015C0184E116
:1006F000A80EB11CA0E1EA16F10420F1F6018281F6
:100700009381DC01ED91FC910484F585E02DAE012F
:10071000B50109959E01B801F6013496005F1F4F9F
:10072000D9019D919D01408980818427DB018D93B2
:10073000BD019193A017B10799F76096B0E1EB1A4C
:10074000F108D8CFDF91CF911F910F91FF90EF90DB
:10075000DF90CF90BF90AF9008958F929F92AF920D
:10076000BF92CF92DF92EF92FF920F931F93CF939E
:10077000DF936C017B015A0189014C0184E1880EF1
:10078000911C0031110530F1D501E6012496FE01DE
:100790008D91908189278193E815F905C9F7A0E12A
:1007A000AA0EB11CF60182819381DC01ED91FC91CE
:1007B0000284F385E02DAE01BE010995F701899110
:1007C0008193C815D905D9F7B0E1EB0EF11C0051A2
:1007D0001109D7CFDF91CF911F910F91FF90EF902B
:1007E000DF90CF90BF90AF909F908F900895EF9241
:1007F000FF920F931F93CF93DF93EC018B017A014C
:100800008A819B81DC01ED91FC910480F581E02DD2
:100810000995409789F48A819B81DC01ED91FC91D7
:100820000084F185E02DA701B801DF91CF911F91E0
:100830000F91FF90EF90099480E0DF91CF911F918D
:100840000F91FF90EF900895DC0112968D919C918D
:100850001397DC01ED91FC910680F781E02D09945E
:10086000DC011396ED91FC91149712968C919F01E7
:1008700040E1849F200D311D1124C9014096108252
:1008800031968E179F07D9F708952F923F924F9276
:100890005F926F927F928F929F92AF92BF92CF9210
:1008A000DF92EF92FF920F931F93CF93DF9300D0CD
:1008B00000D0CDB7DEB78C01FB01508191818281E0
:1008C0004381252F30E03C832B83220F331F7BE1B4
:1008D000272E239E302C11243226A92FB0E09D0113
:1008E000220F331F239EB02C1124B226482E512CE8
:1008F0009201220F331F239E902C11249226642FE5
:1009000070E09B01220F331F239E202C11242226EE
:10091000EB81FC81EE0FFF1FEE0FFF1FFA83E983CF
:100920006D01CC0CDD1CCC0CDD1CED2CFF249701E3
:100930002A5F3E4FF90180808C246201CC0CDD1CC3
:10094000CC0CDD1CED2CFF2497012A5F3E4FF901F2
:10095000A080AC246B01CC0CDD1CCC0CDD1CED2C80
:10096000FF2497012A5F3E4FF901D080DC24EB8001
:10097000FC80F3E0EE0CFF1CFA95E1F72F2D3327F6
:100980002A5F3E4FF901F081FE25FB833D0133E0F4
:10099000660C771C3A95E1F7A72DBB27AA5FBE4FDF
:1009A000AC91A625F3E0440C551CFA95E1F7E52D32
:1009B000FF27EA5FFE4FE0814E2623E0660F771F98
:1009C0002A95E1F7E72FFF27EA5FFE4FE0816E27C8
:1009D00029813A81E32FFF27EA5FFE4F3081298189
:1009E00023273B812327392F382734273A253A27D5
:1009F0003425362733253B253227F8013083352F20
:100A00003827342738253D25FB813F273A273425D1
:100A10003627B326B924F801B18295274927A426A1
:100A2000AA26A424A6269A2492242925228398273C
:100A30009825C92ECD24FB81FC25AF274A266425A5
:100A40006325262F2225F80123830F900F900F9006
:100A50000F90DF91CF911F910F91FF90EF90DF905A
:100A6000CF90BF90AF909F908F907F906F905F904E
:100A70004F903F902F9008951F93CF93DF93FC01E9
:100A8000CB01DB011C9111967C9111971296BC91C0
:100A9000EC01AB81812F90E0880F991FCBE1C99FBA
:100AA000602D11246827472F50E0440F551FC59F24
:100AB000802D112448272B2F30E0220F331FC39F96
:100AC000802D112428278A2F90E0880F991FC99F15
:100AD000C02D11248C27972F9B279A279627942780
:100AE0009083912F9B279A2749274227418371277B
:100AF000A7272A27282722837B27762787278383F0
:100B0000DF91CF911F910895CF93DF93DC01EB012B
:100B1000E881F0E0ED58FE4FE491EC93ED85F0E0D4
:100B2000ED58FE4FE4911196EC931197EA85F0E0B1
:100B3000ED58FE4FE4911296EC931297EF81F0E09E
:100B4000ED58FE4FE4911396EC931397EC81F0E08F
:100B5000ED58FE4FE4911496EC931497E981F0E080
:100B6000ED58FE4FE4911596EC931597EE85F0E065
:100B7000ED58FE4FE4911696EC931697EB85F0E056
:100B8000ED58FE4FE4911796EC931797E885F0E047
:100B9000ED58FE4FE4911896EC931897ED81F0E034
:100BA000ED58FE4FE4911996EC931997EA81F0E025
:100BB000ED58FE4FE4911A96EC931A97EF85F0E00A
:100BC000ED58FE4FE4911B96EC931B97EC85F0E0FB
:100BD000ED58FE4FE4911C96EC931C97E985F0E0EC
:100BE000ED58FE4FE4911D96EC931D97EE81F0E0D9
:100BF000ED58FE4FE4911E96EC931E97EB81F0E0CA
:100C0000ED58FE4FE4911F96EC93DF91CF9108953C
:100C1000AF92BF92CF92DF92EF92FF920F931F930A
:100C2000CF93DF93CDB7DEB7A0970FB6F894DEBFB2
:100C30000FBECDBF6C017B01DC0112968C91129727
:100C400013960D911C911497B0E18B9F000D111D0F
:100C50001124FA019801BE016F5F7F4F405F5F4F23
:100C60005B019191D9018D919D018927DB018D93C4
:100C7000BD01E417F507A9F7B501CE0141960E9421
:100C80008405F601D280D8015097F1E0FD1580F57A
:100C90008D01FD01DE0151969801205F3F4F81914A
:100CA0009C9189278D932E173F07C9F7BE016F5E70
:100CB0007F4FC5010E944504BE016B5E7F4FCE0190
:100CC00005960E944504BE01675E7F4FCE010996DE
:100CD0000E944504BE01635E7F4FCE010D960E94C7
:100CE0004504B501CE0141960E948405DA94CBCF2C
:100CF000AE014F5E5F4FC701FA013191AF012D91F7
:100D00002327FC012193CF010A171B07A9F7A096FF
:100D10000FB6F894DEBF0FBECDBFDF91CF911F910C
:100D20000F91FF90EF90DF90CF90BF90AF9008951C
:100D3000CF93DF93DC01EB01E881F0E0ED58FF4F4A
:100D4000E491EC93ED81F0E0ED58FF4FE4911196C2
:100D5000EC931197EA85F0E0ED58FF4FE49112967D
:100D6000EC931297EF85F0E0ED58FF4FE491139666
:100D7000EC931397EC81F0E0ED58FF4FE49114965B
:100D8000EC931497E985F0E0ED58FF4FE491159648
:100D9000EC931597EE85F0E0ED58FF4FE491169631
:100DA000EC931697EB81F0E0ED58FF4FE491179626
:100DB000EC931797E885F0E0ED58FF4FE491189613
:100DC000EC931897ED85F0E0ED58FF4FE4911996FC
:100DD000EC931997EA81F0E0ED58FF4FE4911A96F1
:100DE000EC931A97EF81F0E0ED58FF4FE4911B96DA
:100DF000EC931B97EC85F0E0ED58FF4FE4911C96C7
:100E0000EC931C97E981F0E0ED58FF4FE4911D96BB
:100E1000EC931D97EE81F0E0ED58FF4FE4911E96A4
:100E2000EC931E97EB85F0E0ED58FF4FE4911F9691
:100E3000EC93DF91CF910895BF92CF92DF92EF9222
:100E4000FF920F931F93CF93DF93CDB7DEB7A09799
:100E50000FB6F894DEBF0FBECDBF7C016B01DC0185
:100E600013960D911C911497FA01A801BF01605FC0
:100E70007F4F9E012F5F3F4F8191DA019D91AD0120
:100E80009827D9019D939D01E617F707A9F7005F01
:100E90001F4FF701B280CE0141967C0191E0BE0167
:100EA0006F5F7F4F9B1558F5C7010E949806B701E9
:100EB000CE0101960E943C05BE016B5E7F4FCE01C4
:100EC00005960E943C05BE01675E7F4FCE010996E4
:100ED0000E943C05BE01635E7F4FCE010D960E94CD
:100EE0003C05D801FE0131968D919081892781932F
:100EF000EE16FF06C9F7005F1F4FBA94CFCFC701A8
:100F00000E949806F701C601AE014F5D5F4F319117
:100F1000D8012D918D012327DC012D93CD014E1792
:100F20005F07A9F7A0960FB6F894DEBF0FBECDBF3E
:100F3000DF91CF911F910F91FF90EF90DF90CF90B5
:100F4000BF90089580E290E008950E942D114031F5
:100F5000510569F4DC01149620E1FB0101900D922A
:100F60002A95E1F720E1FC0124A381E0089580E0C7
:100F700008954031510569F4DC01149620E1FB012C
:100F800001900D922A95E1F720E1FC0124A381E074
:100F9000089580E00895EF92FF920F931F93CF93EF
:100FA000DF934032510509F071C0EC01259680E2D3
:100FB000FB01DE0101900D928A95E1F7A4E3B1E017
:100FC00058E08D8DFE8C0F8DEC8C188179816A81B3
:100FD0003B81583041F5E82FF0E0ED58FF4F249168
:100FE0004B2F50E0FA01E859FF4F4491EF2DF0E00C
:100FF000ED58FF4F9491E02FF0E0ED58FF4F049132
:10100000EE2DF0E0ED58FF4F54914227412748A3C1
:10101000E72FE927E9A3E62FE027EAA335273BA33B
:10102000BF5F50E02CC0EE2D5430F1F4F0E0ED58ED
:10103000FF4F4491E82FF0E0ED58FF4F9491EF2DD2
:10104000F0E0ED58FF4FF490E02FF0E0ED58FF4F47
:101050008491412748A3E72FE927E9A3E62FEF254D
:10106000EAA338273BA30BC0E127E8A3E82FE72733
:10107000E9A3EF2DE627EAA3E02FE327EBA32496CD
:101080005F5FA15009F09DCF81E001C080E0DF915A
:10109000CF911F910F91FF90EF9008951F920F92A3
:1010A0000FB60F9211242F933F934F935F936F933B
:1010B0007F938F939F93AF93BF93EF93FF938CEDA9
:1010C00092E00E94DB01FF91EF91BF91AF919F9160
:1010D0008F917F916F915F914F913F912F910F90E1
:1010E0000FBE0F901F9018951F920F920FB60F9280
:1010F00011242F938F939F93EF93FF93E091EC0232
:10110000F091ED028081E091F202F091F30282FD14
:1011100012C090818091F5028F5F8F732091F6024B
:10112000821751F0E091F502F0E0E452FD4F958F07
:101130008093F50201C08081FF91EF919F918F9183
:101140002F910F900FBE0F901F90189580E190E0A7
:101150000895CF93DF93EC0188EB91E09983888326
:10116000CE0104960E942C03CE014496DF91CF91CC
:101170000C942C03CF93DF93EC010E94A908CE01BD
:10118000DF91CF910C94A410CF93DF93EC018AEF01
:1011900091E099838883CE0104960E942C03CE01AE
:1011A0004496DF91CF910C942C03CF93DF93EC0105
:1011B0000E94C408CE01DF91CF910C94A410FC01D1
:1011C00035968B509F4F10823196E817F907D9F763
:1011D0000895CF93DF93EC010E94DF08CE01DF91E9
:1011E000CF910C94A410CF93DF93EC0180E192E0B7
:1011F00099838883CE0185960E94DF08CE01DF9116
:10120000CF910C94C408CF93DF93EC010E94F308B4
:10121000CE01DF91CF910C94A410CF93DF93EC011A
:101220008EEC91E099838883CE0186960E94DF0838
:10123000CE01DF91CF910C94A908CF93DF93EC01FD
:101240000E940D09CE01DF91CF910C94A4103FB7FD
:10125000F8948091A8069091A906A091AA06B09151
:10126000AB0626B5A89B05C02F3F19F00196A11D1E
:10127000B11D3FBFBA2FA92F982F8827820F911D2C
:10128000A11DB11DBC01CD0142E0660F771F881F73
:10129000991F4A95D1F70895009769F0FC010190D4
:1012A0000020E9F73197AF01481B590BBC018CEDC9
:1012B00092E00C94660180E090E008958F929F92F6
:1012C000AF92BF920F931F93CF93DF93CDB7DEB74B
:1012D000A1970FB6F894DEBF0FBECDBF19A2423062
:1012E00008F44AE08E010F5D1F4F842E912CA12C33
:1012F000B12CA50194010E94A10DE62FB901CA01EC
:1013000001501109EA3014F4E05D01C0E95CD80134
:10131000EC93232B242B252B61F7C8010E944C0949
:10132000A1960FB6F894DEBF0FBECDBFDF91CF916F
:101330001F910F91BF90AF909F908F9008958F92C3
:101340009F92AF92BF92CF92DF92EF92FF920F9354
:101350001F93CF93DF936B017C01142F9B01AC0192
:101360000E940710882319F08BEC92E027C04601F9
:101370005701E894B7F82FEF3FEF4FE75FE7C5015C
:10138000B4010E94071081110DC02FEF3FEF4FE70E
:101390005FE7C501B4010E94360E18161CF48FECED
:1013A00092E00CC02FEF3FEF4FE75FE4C701B601BB
:1013B0000E94950F181684F483ED92E0DF91CF918F
:1013C0001F910F91FF90EF90DF90CF90BF90AF9063
:1013D0009F908F900C944C092FEF3FEF4FE75FECFD
:1013E000C701B6010E94360E87FDE6CF20E030E04F
:1013F000A901C701B6010E94360E87FF0BC06DE23E
:101400008CED92E00E94FD01EC01F7FAF094F7F800
:10141000F09402C0C0E0D0E000E060E070E080E066
:101420009FE3101741F020E030E040E251E40E94D9
:101430003B0E0F5FF6CFA70196010E94CA0D6B010C
:101440007C010E94B40E4B015C014AE00E945E09DF
:10145000C80FD91F1123B9F1C501B4010E94E30ED1
:101460009B01AC01C701B6010E94C90D6B017C0153
:101470006EE28CED92E00E94FD01C80FD91F20E0C2
:1014800030E040E251E4C701B6010E949A0F4B01DF
:101490005C010E94B40E6B01E12CF12C4AE0C70103
:1014A000B6010E945E09C80FD91FC701B6010E948C
:1014B000E30E9B01AC01C501B4010E94C90D6B0193
:1014C0007C011150E1F6CE01DF91CF911F910F9178
:1014D000FF90EF90DF90CF90BF90AF909F908F9054
:1014E00008950C944C092F923F924F925F926F9205
:1014F0007F928F929F92AF92BF92CF92DF92EF92A4
:10150000FF920F931F93CF93DF931C01EB018A018E
:10151000209709F481C00E9427094B015C0100E17A
:1015200017E2E881F981E084F1840480F581E02DFF
:10153000CE010995AC0160E171E0CE01F70109959A
:10154000E881F981E284F3840680F781E02DCE0101
:101550000995AC016CE771E0CE01F70109950150E6
:101560001109F9F60E942709681979098A099B0966
:101570000E94E30E20E030E44CE156E40E943B0E72
:101580004B015C010E9427096B017C0104EF11E013
:10159000E881F9810484F585E02D20E830E04CEA0B
:1015A00056E0BA01CE0109950150110989F70E9450
:1015B00027096C197D098E099F090E94E30E20E01E
:1015C00030E04AEF53E40E943B0E6B017C01E8815E
:1015D000F981008511850480F581E02DCE01099502
:1015E000AC0160E171E0CE01F8010995E881F98173
:1015F000028513850680F781E02DCE010995AC01A7
:101600006CE771E0CE01F80109950E9427092B01D2
:101610003C0104EF11E062C00E9427094B015C010C
:10162000C0E1D7E2D801ED91FC91E084F18406801D
:10163000F781E02DC8010995AC0160E171E0C801B6
:10164000F7010995219771F70E942709681979090F
:101650008A099B090E94E30E20E030E44CE156E445
:101660000E943B0E4B015C010E9427096B017C012B
:10167000C4EFD1E0D801ED91FC910284F385E02D17
:101680004CEA56E0BA01C8010995219799F70E94E2
:1016900027096C197D098E099F090E94E30E20E03D
:1016A00030E04AEF53E40E943B0E6B017C01D8010D
:1016B000ED91FC91C085D1850680F781E02DC801B0
:1016C0000995AC0160E171E0C801FE0109950E9435
:1016D00027092B013C01C4EFD1E010C0E881F9815A
:1016E0000684F785E02D20E830E04CEA56E0BA01A8
:1016F000CE0109950150110989F70DC0D801ED916E
:10170000FC910484F585E02D4CEA56E0BA01C8014D
:101710000995219799F70E94270964197509860987
:1017200097090E94E30E20E030E04AEF53E40E9464
:101730003B0E2B013C01C1010E94710A8AED92E02F
:101740000E94710A87ED92E00E94710A8AED92E090
:101750000E94710A42E0C501B4010E949F0989ED0F
:1017600092E00E94710A42E0C701B6010E949F09FF
:1017700089ED92E00E94710AC301B2010E94AD0E90
:101780000E94E50E42E00E949F0981E792E0DF910E
:10179000CF911F910F91FF90EF90DF90CF90BF906E
:1017A000AF909F908F907F906F905F904F903F9001
:1017B0002F900C944C09CF92DF92EF92FF92CF932F
:1017C000DF9397FF1BC06B017C016DE28CED92E013
:1017D0000E94FD01EC0166277727CB016C197D097A
:1017E0008E099F094AE00E945E098C0F9D1FDF91C0
:1017F000CF91FF90EF90DF90CF9008954AE0DF9176
:10180000CF91FF90EF90DF90CF900C945E091F92E4
:101810000F920FB60F9211242F933F938F939F93A4
:10182000AF93BF938091A4069091A506A091A606C0
:10183000B091A7063091A30623E0230F2D3720F4A3
:101840000196A11DB11D05C026E8230F0296A11D1A
:10185000B11D2093A3068093A4069093A506A093A0
:10186000A606B093A7068091A8069091A906A0911C
:10187000AA06B091AB060196A11DB11D8093A806E2
:101880009093A906A093AA06B093AB06BF91AF911F
:101890009F918F913F912F910F900FBE0F901F90AE
:1018A0001895789484B5826084BD84B5816084BDC8
:1018B00085B5826085BD85B5816085BD80916E00EE
:1018C000816080936E00109281008091810082601F
:1018D000809381008091810081608093810080915C
:1018E00080008160809380008091B100846080934B
:1018F000B1008091B00081608093B00080917A0047
:10190000846080937A0080917A00826080937A006C
:1019100080917A00816080937A0080917A0080685B
:1019200080937A001092C100E091EC02F091ED02F8
:1019300082E08083E091E802F091E9021082E09178
:10194000EA02F091EB028FEC80831092F402E091B6
:10195000F002F091F10286E08083E091EE02F091D6
:10196000EF02808180618083E091EE02F091EF02CE
:10197000808188608083E091EE02F091EF028081A7
:1019800080688083E091EE02F091EF0280818F7D8C
:1019900080838EE592E00E944C0981E792E00E94EC
:1019A0004C0984E792E00E944C0981E792E00E9492
:1019B0004C09C12CD12C7601C701B6010E94DB0B6A
:1019C0008AED92E00E94710A4EEA55E060E070E014
:1019D00087EA92E00E94730A8FEFC81AD80AE80AD1
:1019E000F80A8AE0C816D104E104F10429F7C12CF1
:1019F000D12C7601C701B6010E94DB0B8AED92E083
:101A00000E94710A40E050E064E974E083EB92E0E8
:101A10000E94730A8FEFC81AD80AE80AF80A8AE007
:101A2000C816D104E104F10429F7C12CD12C7601A8
:101A3000C701B6010E94DB0B8AED92E00E94710A99
:101A400040E050E069E773E08FEB92E00E94730A98
:101A50008FEFC81AD80AE80AF80A8AE0C816D10433
:101A6000E104F10429F70E946C02FDCF89E793E0BD
:101A70000E940D0984E994E00E94F3088EEA95E043
:101A80000C94DF08ECEDF2E01382128288EE93E012
:101A9000A0E0B0E084839583A683B78386EA91E0D3
:101AA0009183808385EC90E09587848784EC90E037
:101AB0009787868780EC90E0918B808B81EC90E01B
:101AC000938B828B82EC90E0958B848B86EC90E0FC
:101AD000978B868B118E128E138E148EEEEAF5E0A4
:101AE0002EE432E0318320838EE0828343EB55E0A5
:101AF00054834383E4E9F4E090E194A340E152E0AD
:101B00005183408336A325A387A34EEB54E051A70E
:101B100040A749EB54E053834283E9E7F3E094A301
:101B200015A24EEC51E05183408337A326A380A732
:101B300084EA93E092A781A78FE993E0938382835D
:101B40000895A1E21A2EAA1BBB1BFD010DC0AA1FFE
:101B5000BB1FEE1FFF1FA217B307E407F50720F016
:101B6000A21BB30BE40BF50B661F771F881F991F91
:101B70001A9469F760957095809590959B01AC01DA
:101B8000BD01CF010895EE0FFF1F0590F491E02DE8
:101B900009945058BB27AA270E94E10D0C945B0FB3
:101BA0000E944D0F38F00E94540F20F039F49F3FEF
:101BB00019F426F40C944A0F0EF4E095E7FB0C940C
:101BC000440FE92F0E946C0F58F3BA17620773078E
:101BD0008407950720F079F4A6F50C948E0F0EF487
:101BE000E0950B2EBA2FA02D0B01B90190010C012D
:101BF000CA01A0011124FF27591B99F0593F50F445
:101C0000503E68F11A16F040A22F232F342F44279C
:101C1000585FF3CF469537952795A795F040539594
:101C2000C9F77EF41F16BA0B620B730B840BBAF064
:101C30009150A1F0FF0FBB1F661F771F881FC2F7CF
:101C40000EC0BA0F621F731F841F48F487957795E3
:101C50006795B795F7959E3F08F0B0CF9395880F9D
:101C600008F09927EE0F9795879508950E94200F09
:101C700008F481E008950E944F0E0C945B0F0E94BF
:101C8000540F58F00E944D0F40F029F45F3F29F0A7
:101C90000C94440F51110C948F0F0C944A0F0E9416
:101CA0006C0F68F39923B1F3552391F3951B550BF2
:101CB000BB27AA2762177307840738F09F5F5F4F1F
:101CC000220F331F441FAA1FA9F335D00E2E3AF05E
:101CD000E0E832D091505040E695001CCAF72BD076
:101CE000FE2F29D0660F771F881FBB1F26173707C7
:101CF0004807AB07B0E809F0BB0B802DBF01FF27F9
:101D000093585F4F3AF09E3F510578F00C94440F82
:101D10000C948F0F5F3FE4F3983ED4F3869577954C
:101D20006795B795F7959F5FC9F7880F911D9695B1
:101D3000879597F90895E1E0660F771F881FBB1F0D
:101D4000621773078407BA0720F0621B730B840BBA
:101D5000BA0BEE1F88F7E09508950E94B40E6894C0
:101D6000B1110C948F0F08950E94740F88F09F5743
:101D700098F0B92F9927B751B0F0E1F0660F771FAF
:101D8000881F991F1AF0BA95C9F714C0B13091F0A5
:101D90000E948E0FB1E008950C948E0F672F782F5C
:101DA0008827B85F39F0B93FCCF38695779567956A
:101DB000B395D9F73EF490958095709561957F4FD6
:101DC0008F4F9F4F0895E89409C097FB3EF490957C
:101DD0008095709561957F4F8F4F9F4F9923A9F004
:101DE000F92F96E9BB279395F69587957795679593
:101DF000B795F111F8CFFAF4BB0F11F460FF1BC0D7
:101E00006F5F7F4F8F4F9F4F16C0882311F096E969
:101E100011C0772321F09EE8872F762F05C0662317
:101E200071F096E8862F70E060E02AF09A95660FD0
:101E3000771F881FDAF7880F9695879597F9089589
:101E4000990F0008550FAA0BE0E8FEEF16161706CB
:101E5000E807F907C0F012161306E407F50798F033
:101E6000621B730B840B950B39F40A2661F0232B4C
:101E7000242B252B21F408950A2609F4A140A695C8
:101E80008FEF811D811D089597F99F6780E870E0AD
:101E900060E008959FEF80EC089500240A941616E0
:101EA000170618060906089500240A941216130648
:101EB000140605060895092E0394000C11F48823D6
:101EC00052F0BB0F40F4BF2B11F460FF04C06F5FF2
:101ED0007F4F8F4F9F4F089557FD9058440F551FC8
:101EE00059F05F3F71F04795880F97FB991F61F09C
:101EF0009F3F79F087950895121613061406551F13
:101F0000F2CF4695F1DF08C0161617061806991F7E
:101F1000F1CF86957105610508940895E894BB2773
:101F200066277727CB0197F908950E94200F08F4C0
:101F30008FEF08950E94AD0F0C945B0F0E944D0F20
:101F400038F00E94540F20F0952311F00C94440FA8
:101F50000C944A0F11240C948F0F0E946C0F70F395
:101F6000959FC1F3950F50E0551F629FF001729F3E
:101F7000BB27F00DB11D639FAA27F00DB11DAA1F4D
:101F8000649F6627B00DA11D661F829F2227B00D9A
:101F9000A11D621F739FB00DA11D621F839FA00D25
:101FA000611D221F749F3327A00D611D231F849F75
:101FB000600D211D822F762F6A2F11249F575040CC
:101FC0009AF0F1F088234AF0EE0FFF1FBB1F661F47
:101FD000771F881F91505040A9F79E3F510580F010
:101FE0000C94440F0C948F0F5F3FE4F3983ED4F3AE
:101FF000869577956795B795F795E7959F5FC1F7B4
:10200000FE2B880F911D9695879597F908950E944C
:10201000200F880B990B08950F931F93CF93DF9395
:102020008230910510F482E090E0E0912E07F0916B
:102030002F0720E030E0A0E0B0E0309719F14081B8
:1020400051810281138148175907C8F084179507F9
:1020500069F4109731F012960C93129713961C9313
:1020600027C000932E0710932F0722C0211531059A
:1020700019F04217530718F49A01BD01EF01DF016F
:10208000F801DBCF21153105F9F0281B390B24307D
:10209000310580F48A819B816115710521F0FB0176
:1020A0009383828304C090932F0780932E07FE01B1
:1020B000329644C0FE01E20FF31F819391932250A8
:1020C0003109398328833AC020912C0730912D079C
:1020D000232B41F4209102013091030130932D070D
:1020E00020932C0720910001309101012115310529
:1020F00041F42DB73EB74091040150910501241BD6
:10210000350BE0912C07F0912D07E217F307A0F4AF
:102110002E1B3F0B2817390778F0AC014E5F5F4F3D
:102120002417350748F04E0F5F1F50932D0740933B
:102130002C078193919302C0E0E0F0E0CF01DF91A2
:10214000CF911F910F910895CF93DF93009709F4DA
:1021500081C0FC01329713821282A0912E07B091A8
:102160002F07109781F420813181820F931F2091D6
:102170002C0730912D072817390751F5F0932D07BB
:10218000E0932C0767C0ED0120E030E0CE17DF07B9
:1021900040F44A815B819E0141155105F1F0EA014D
:1021A000F5CFD383C28340815181840F951FC81717
:1021B000D90759F488819981840F951F02969183DC
:1021C00080838A819B81938382832115310529F441
:1021D000F0932F07E0932E073DC0E901FB83EA83CC
:1021E00049915991C40FD51FEC17FD0761F4808107
:1021F0009181840F951F0296E901998388838281DA
:1022000093819B838A83E0E0F0E012968D919C910C
:102210001397009719F0FD01DC01F7CF8D919C9188
:1022200011979D012E5F3F4F820F931F20912C0726
:1022300030912D072817390769F4309729F4109247
:102240002F0710922E0702C013821282B0932D071F
:10225000A0932C07DF91CF91089581E090E0F8944E
:102260000C94321111E0CBE3D1E004C0FE010E94D6
:0E227000C30D2196CC33D107C9F7F894FFCFE8
:10227E00000030072000001B362D6C775A41BF023C
:10228E00000102030405060708090A0B0C0D0E0FC8
:10229E00101112131415161718191A1B1C1D1E1FB8
:1022AE000000000000112233445566778899AABBBE
:1022BE00CCDDEEFF8899AABBCCDDEEFF8899AABBD8
:1022CE00CCDDEEFF000000008EA2B7CA516745BFFD
:1022DE00EAFC49904B4960890000000000000000B4
:1022EE0000000000000000000000000000E0017B84
:1022FE0027777F3F4A1786F000000001006CB6DB9F
:10230E00C0543B59006CB6DBC0543B590000000072
:10231E00240000000000FD01660194014A02C5017F
:10232E00A301B70100000000A908BA082003A608FF
:10233E00F302A7077D0276023603000000000D09A6
:10234E001D092003A608F302A7077D0276023603B5
:10235E000000000000000000A507A507A507A507BF
:10236E00A507A507A50700000000C408D50824048A
:10237E00A608F703B907AD0368034F03000000007A
:10238E00F30803092404A608F703B907AD0368038D
:10239E004F030000000000000000A507A507A507D9
:1023AE00A507A507A5070000000000000000A6086D
:1023BE00A507A5071C070806300400000000DF086B
:1023CE00E908A608A207CB071C07080630045065CB
:1023DE0072666F726D616E63652054657374733AC5
:1023EE00000D0A00526F756E6409416C676F726959
:1023FE00746D6F094D6F646F0954656D706F204B6E
:10240E00657909456E6320426C6F636F094465639D
:10241E0020426C6F636F004145532D3235362D458A
:10242E004342004145532D3235362D434243004140
:10243E0045532D3235362D435452006E616E006970
:0C244E006E66006F766600310009090020
:00000001FF
